{
  "contractName": "Poap",
  "abi": [
    {
      "inputs": [],
      "stateMutability": "nonpayable",
      "type": "constructor"
    },
    {
      "anonymous": false,
      "inputs": [
        {
          "indexed": true,
          "internalType": "address",
          "name": "owner",
          "type": "address"
        },
        {
          "indexed": true,
          "internalType": "address",
          "name": "approved",
          "type": "address"
        },
        {
          "indexed": true,
          "internalType": "uint256",
          "name": "tokenId",
          "type": "uint256"
        }
      ],
      "name": "Approval",
      "type": "event"
    },
    {
      "anonymous": false,
      "inputs": [
        {
          "indexed": true,
          "internalType": "address",
          "name": "owner",
          "type": "address"
        },
        {
          "indexed": true,
          "internalType": "address",
          "name": "operator",
          "type": "address"
        },
        {
          "indexed": false,
          "internalType": "bool",
          "name": "approved",
          "type": "bool"
        }
      ],
      "name": "ApprovalForAll",
      "type": "event"
    },
    {
      "anonymous": false,
      "inputs": [
        {
          "indexed": false,
          "internalType": "string",
          "name": "collectionName",
          "type": "string"
        },
        {
          "indexed": false,
          "internalType": "string",
          "name": "metaURI",
          "type": "string"
        }
      ],
      "name": "CreateCollection",
      "type": "event"
    },
    {
      "anonymous": false,
      "inputs": [
        {
          "indexed": false,
          "internalType": "uint256",
          "name": "tokenId",
          "type": "uint256"
        }
      ],
      "name": "Locked",
      "type": "event"
    },
    {
      "anonymous": false,
      "inputs": [
        {
          "indexed": false,
          "internalType": "uint256",
          "name": "tokenId",
          "type": "uint256"
        },
        {
          "indexed": false,
          "internalType": "string",
          "name": "tokenURI",
          "type": "string"
        },
        {
          "indexed": false,
          "internalType": "uint256",
          "name": "createdAt",
          "type": "uint256"
        }
      ],
      "name": "MintToken",
      "type": "event"
    },
    {
      "anonymous": false,
      "inputs": [
        {
          "indexed": true,
          "internalType": "address",
          "name": "previousOwner",
          "type": "address"
        },
        {
          "indexed": true,
          "internalType": "address",
          "name": "newOwner",
          "type": "address"
        }
      ],
      "name": "OwnershipTransferred",
      "type": "event"
    },
    {
      "anonymous": false,
      "inputs": [
        {
          "indexed": false,
          "internalType": "address",
          "name": "account",
          "type": "address"
        }
      ],
      "name": "Paused",
      "type": "event"
    },
    {
      "anonymous": false,
      "inputs": [
        {
          "indexed": true,
          "internalType": "address",
          "name": "from",
          "type": "address"
        },
        {
          "indexed": true,
          "internalType": "address",
          "name": "to",
          "type": "address"
        },
        {
          "indexed": true,
          "internalType": "uint256",
          "name": "tokenId",
          "type": "uint256"
        }
      ],
      "name": "Transfer",
      "type": "event"
    },
    {
      "anonymous": false,
      "inputs": [
        {
          "indexed": false,
          "internalType": "uint256",
          "name": "tokenId",
          "type": "uint256"
        }
      ],
      "name": "Unlocked",
      "type": "event"
    },
    {
      "anonymous": false,
      "inputs": [
        {
          "indexed": false,
          "internalType": "address",
          "name": "account",
          "type": "address"
        }
      ],
      "name": "Unpaused",
      "type": "event"
    },
    {
      "inputs": [
        {
          "internalType": "address",
          "name": "to",
          "type": "address"
        },
        {
          "internalType": "uint256",
          "name": "tokenId",
          "type": "uint256"
        }
      ],
      "name": "approve",
      "outputs": [],
      "stateMutability": "nonpayable",
      "type": "function"
    },
    {
      "inputs": [
        {
          "internalType": "address",
          "name": "owner",
          "type": "address"
        }
      ],
      "name": "balanceOf",
      "outputs": [
        {
          "internalType": "uint256",
          "name": "",
          "type": "uint256"
        }
      ],
      "stateMutability": "view",
      "type": "function",
      "constant": true
    },
    {
      "inputs": [
        {
          "internalType": "uint256",
          "name": "tokenId",
          "type": "uint256"
        }
      ],
      "name": "getApproved",
      "outputs": [
        {
          "internalType": "address",
          "name": "",
          "type": "address"
        }
      ],
      "stateMutability": "view",
      "type": "function",
      "constant": true
    },
    {
      "inputs": [
        {
          "internalType": "address",
          "name": "owner",
          "type": "address"
        },
        {
          "internalType": "address",
          "name": "operator",
          "type": "address"
        }
      ],
      "name": "isApprovedForAll",
      "outputs": [
        {
          "internalType": "bool",
          "name": "",
          "type": "bool"
        }
      ],
      "stateMutability": "view",
      "type": "function",
      "constant": true
    },
    {
      "inputs": [],
      "name": "name",
      "outputs": [
        {
          "internalType": "string",
          "name": "",
          "type": "string"
        }
      ],
      "stateMutability": "view",
      "type": "function",
      "constant": true
    },
    {
      "inputs": [],
      "name": "owner",
      "outputs": [
        {
          "internalType": "address",
          "name": "",
          "type": "address"
        }
      ],
      "stateMutability": "view",
      "type": "function",
      "constant": true
    },
    {
      "inputs": [
        {
          "internalType": "uint256",
          "name": "tokenId",
          "type": "uint256"
        }
      ],
      "name": "ownerOf",
      "outputs": [
        {
          "internalType": "address",
          "name": "",
          "type": "address"
        }
      ],
      "stateMutability": "view",
      "type": "function",
      "constant": true
    },
    {
      "inputs": [],
      "name": "pause",
      "outputs": [],
      "stateMutability": "nonpayable",
      "type": "function"
    },
    {
      "inputs": [],
      "name": "paused",
      "outputs": [
        {
          "internalType": "bool",
          "name": "",
          "type": "bool"
        }
      ],
      "stateMutability": "view",
      "type": "function",
      "constant": true
    },
    {
      "inputs": [],
      "name": "renounceOwnership",
      "outputs": [],
      "stateMutability": "nonpayable",
      "type": "function"
    },
    {
      "inputs": [
        {
          "internalType": "address",
          "name": "operator",
          "type": "address"
        },
        {
          "internalType": "bool",
          "name": "approved",
          "type": "bool"
        }
      ],
      "name": "setApprovalForAll",
      "outputs": [],
      "stateMutability": "nonpayable",
      "type": "function"
    },
    {
      "inputs": [
        {
          "internalType": "bytes4",
          "name": "interfaceId",
          "type": "bytes4"
        }
      ],
      "name": "supportsInterface",
      "outputs": [
        {
          "internalType": "bool",
          "name": "",
          "type": "bool"
        }
      ],
      "stateMutability": "view",
      "type": "function",
      "constant": true
    },
    {
      "inputs": [],
      "name": "symbol",
      "outputs": [
        {
          "internalType": "string",
          "name": "",
          "type": "string"
        }
      ],
      "stateMutability": "view",
      "type": "function",
      "constant": true
    },
    {
      "inputs": [
        {
          "internalType": "uint256",
          "name": "tokenId",
          "type": "uint256"
        }
      ],
      "name": "tokenURI",
      "outputs": [
        {
          "internalType": "string",
          "name": "",
          "type": "string"
        }
      ],
      "stateMutability": "view",
      "type": "function",
      "constant": true
    },
    {
      "inputs": [],
      "name": "unpause",
      "outputs": [],
      "stateMutability": "nonpayable",
      "type": "function"
    },
    {
      "inputs": [
        {
          "internalType": "address",
          "name": "newOwner",
          "type": "address"
        }
      ],
      "name": "transferOwnership",
      "outputs": [],
      "stateMutability": "nonpayable",
      "type": "function"
    },
    {
      "inputs": [
        {
          "internalType": "string",
          "name": "collectionName",
          "type": "string"
        },
        {
          "internalType": "address",
          "name": "owner",
          "type": "address"
        },
        {
          "internalType": "string",
          "name": "metaURI",
          "type": "string"
        }
      ],
      "name": "createCollection",
      "outputs": [],
      "stateMutability": "nonpayable",
      "type": "function"
    },
    {
      "inputs": [
        {
          "internalType": "address",
          "name": "recipient",
          "type": "address"
        },
        {
          "internalType": "string",
          "name": "collectionName",
          "type": "string"
        }
      ],
      "name": "mintToken",
      "outputs": [
        {
          "internalType": "uint256",
          "name": "",
          "type": "uint256"
        }
      ],
      "stateMutability": "nonpayable",
      "type": "function"
    },
    {
      "inputs": [
        {
          "internalType": "uint256",
          "name": "tokenId",
          "type": "uint256"
        }
      ],
      "name": "unlock",
      "outputs": [],
      "stateMutability": "nonpayable",
      "type": "function"
    },
    {
      "inputs": [
        {
          "internalType": "uint256",
          "name": "tokenId",
          "type": "uint256"
        }
      ],
      "name": "lock",
      "outputs": [],
      "stateMutability": "nonpayable",
      "type": "function"
    },
    {
      "inputs": [
        {
          "internalType": "uint256",
          "name": "tokenId",
          "type": "uint256"
        }
      ],
      "name": "tokenCollection",
      "outputs": [
        {
          "internalType": "string",
          "name": "",
          "type": "string"
        }
      ],
      "stateMutability": "view",
      "type": "function",
      "constant": true
    },
    {
      "inputs": [
        {
          "internalType": "string",
          "name": "collectionName",
          "type": "string"
        }
      ],
      "name": "collectionMinted",
      "outputs": [
        {
          "internalType": "uint256",
          "name": "",
          "type": "uint256"
        }
      ],
      "stateMutability": "view",
      "type": "function",
      "constant": true
    },
    {
      "inputs": [
        {
          "internalType": "string",
          "name": "collectionName",
          "type": "string"
        }
      ],
      "name": "collectionOwner",
      "outputs": [
        {
          "internalType": "address",
          "name": "",
          "type": "address"
        }
      ],
      "stateMutability": "view",
      "type": "function",
      "constant": true
    },
    {
      "inputs": [
        {
          "internalType": "uint256",
          "name": "tokenId",
          "type": "uint256"
        }
      ],
      "name": "tokenCreatedAt",
      "outputs": [
        {
          "internalType": "uint256",
          "name": "",
          "type": "uint256"
        }
      ],
      "stateMutability": "view",
      "type": "function",
      "constant": true
    },
    {
      "inputs": [
        {
          "internalType": "uint256",
          "name": "tokenId",
          "type": "uint256"
        }
      ],
      "name": "locked",
      "outputs": [
        {
          "internalType": "bool",
          "name": "",
          "type": "bool"
        }
      ],
      "stateMutability": "view",
      "type": "function",
      "constant": true
    },
    {
      "inputs": [
        {
          "internalType": "address",
          "name": "from",
          "type": "address"
        },
        {
          "internalType": "address",
          "name": "to",
          "type": "address"
        },
        {
          "internalType": "uint256",
          "name": "tokenId",
          "type": "uint256"
        }
      ],
      "name": "safeTransferFrom",
      "outputs": [],
      "stateMutability": "nonpayable",
      "type": "function"
    },
    {
      "inputs": [
        {
          "internalType": "address",
          "name": "from",
          "type": "address"
        },
        {
          "internalType": "address",
          "name": "to",
          "type": "address"
        },
        {
          "internalType": "uint256",
          "name": "tokenId",
          "type": "uint256"
        },
        {
          "internalType": "bytes",
          "name": "data",
          "type": "bytes"
        }
      ],
      "name": "safeTransferFrom",
      "outputs": [],
      "stateMutability": "nonpayable",
      "type": "function"
    },
    {
      "inputs": [
        {
          "internalType": "address",
          "name": "from",
          "type": "address"
        },
        {
          "internalType": "address",
          "name": "to",
          "type": "address"
        },
        {
          "internalType": "uint256",
          "name": "tokenId",
          "type": "uint256"
        }
      ],
      "name": "transferFrom",
      "outputs": [],
      "stateMutability": "nonpayable",
      "type": "function"
    }
  ],
  "bytecode": "0x60806040526000600960006101000a81548160ff0219169083151502179055503480156200002c57600080fd5b506040518060400160405280600481526020017f506f6170000000000000000000000000000000000000000000000000000000008152506040518060400160405280600381526020017f44594500000000000000000000000000000000000000000000000000000000008152508160009081620000aa91906200042d565b508060019081620000bc91906200042d565b505050620000df620000d3620000e560201b60201c565b620000ed60201b60201c565b62000514565b600033905090565b6000600760009054906101000a900473ffffffffffffffffffffffffffffffffffffffff16905081600760006101000a81548173ffffffffffffffffffffffffffffffffffffffff021916908373ffffffffffffffffffffffffffffffffffffffff1602179055508173ffffffffffffffffffffffffffffffffffffffff168173ffffffffffffffffffffffffffffffffffffffff167f8be0079c531659141344cd1fd0a4f28419497f9722a3daafe3b4186f6b6457e060405160405180910390a35050565b600081519050919050565b7f4e487b7100000000000000000000000000000000000000000000000000000000600052604160045260246000fd5b7f4e487b7100000000000000000000000000000000000000000000000000000000600052602260045260246000fd5b600060028204905060018216806200023557607f821691505b6020821081036200024b576200024a620001ed565b5b50919050565b60008190508160005260206000209050919050565b60006020601f8301049050919050565b600082821b905092915050565b600060088302620002b57fffffffffffffffffffffffffffffffffffffffffffffffffffffffffffffffff8262000276565b620002c1868362000276565b95508019841693508086168417925050509392505050565b6000819050919050565b6000819050919050565b60006200030e620003086200030284620002d9565b620002e3565b620002d9565b9050919050565b6000819050919050565b6200032a83620002ed565b62000342620003398262000315565b84845462000283565b825550505050565b600090565b620003596200034a565b620003668184846200031f565b505050565b5b818110156200038e57620003826000826200034f565b6001810190506200036c565b5050565b601f821115620003dd57620003a78162000251565b620003b28462000266565b81016020851015620003c2578190505b620003da620003d18562000266565b8301826200036b565b50505b505050565b600082821c905092915050565b60006200040260001984600802620003e2565b1980831691505092915050565b60006200041d8383620003ef565b9150826002028217905092915050565b6200043882620001b3565b67ffffffffffffffff811115620004545762000453620001be565b5b6200046082546200021c565b6200046d82828562000392565b600060209050601f831160018114620004a5576000841562000490578287015190505b6200049c85826200040f565b8655506200050c565b601f198416620004b58662000251565b60005b82811015620004df57848901518255600182019150602085019450602081019050620004b8565b86831015620004ff5784890151620004fb601f891682620003ef565b8355505b6001600288020188555050505b505050505050565b61427b80620005246000396000f3fe608060405234801561001057600080fd5b50600436106101c45760003560e01c8063715018a6116100f9578063a22cb46511610097578063c87b56dd11610071578063c87b56dd14610503578063dd46706414610533578063e985e9c51461054f578063f2fde38b1461057f576101c4565b8063a22cb4651461049b578063b45a3c0e146104b7578063b88d4fde146104e7576101c4565b80638da5cb5b116100d35780638da5cb5b146103ff57806395d89b411461041d5780639ace23ed1461043b5780639b7bcf971461046b576101c4565b8063715018a6146103cf5780637d7c985c146103d95780638456cb59146103f5576101c4565b80633d02d0c9116101665780635c975abb116101405780635c975abb146103355780636198e339146103535780636352211e1461036f57806370a082311461039f576101c4565b80633d02d0c9146102df5780633f4ba83a1461030f57806342842e0e14610319576101c4565b8063095ea7b3116101a2578063095ea7b314610247578063202e1d161461026357806323b872dd146102935780632dd883e8146102af576101c4565b806301ffc9a7146101c957806306fdde03146101f9578063081812fc14610217575b600080fd5b6101e360048036038101906101de91906129ea565b61059b565b6040516101f09190612a32565b60405180910390f35b61020161067d565b60405161020e9190612add565b60405180910390f35b610231600480360381019061022c9190612b35565b61070f565b60405161023e9190612ba3565b60405180910390f35b610261600480360381019061025c9190612bea565b610794565b005b61027d60048036038101906102789190612d5f565b6108ab565b60405161028a9190612db7565b60405180910390f35b6102ad60048036038101906102a89190612dd2565b61091d565b005b6102c960048036038101906102c49190612b35565b61095c565b6040516102d69190612add565b60405180910390f35b6102f960048036038101906102f49190612e25565b610a4b565b6040516103069190612db7565b60405180910390f35b610317610cd5565b005b610333600480360381019061032e9190612dd2565b610dbe565b005b61033d610dfd565b60405161034a9190612a32565b60405180910390f35b61036d60048036038101906103689190612b35565b610e14565b005b61038960048036038101906103849190612b35565b610f00565b6040516103969190612ba3565b60405180910390f35b6103b960048036038101906103b49190612e81565b610fb1565b6040516103c69190612db7565b60405180910390f35b6103d7611068565b005b6103f360048036038101906103ee9190612eae565b6110f0565b005b6103fd6112ba565b005b6104076113a4565b6040516104149190612ba3565b60405180910390f35b6104256113ce565b6040516104329190612add565b60405180910390f35b61045560048036038101906104509190612b35565b611460565b6040516104629190612db7565b60405180910390f35b61048560048036038101906104809190612d5f565b6114c7565b6040516104929190612ba3565b60405180910390f35b6104b560048036038101906104b09190612f65565b611559565b005b6104d160048036038101906104cc9190612b35565b61156f565b6040516104de9190612a32565b60405180910390f35b61050160048036038101906104fc9190613046565b611581565b005b61051d60048036038101906105189190612b35565b6115c2565b60405161052a9190612add565b60405180910390f35b61054d60048036038101906105489190612b35565b611713565b005b610569600480360381019061056491906130c9565b6117ff565b6040516105769190612a32565b60405180910390f35b61059960048036038101906105949190612e81565b611893565b005b60007f80ac58cd000000000000000000000000000000000000000000000000000000007bffffffffffffffffffffffffffffffffffffffffffffffffffffffff1916827bffffffffffffffffffffffffffffffffffffffffffffffffffffffff1916148061066657507f5b5e139f000000000000000000000000000000000000000000000000000000007bffffffffffffffffffffffffffffffffffffffffffffffffffffffff1916827bffffffffffffffffffffffffffffffffffffffffffffffffffffffff1916145b8061067657506106758261198a565b5b9050919050565b60606000805461068c90613138565b80601f01602080910402602001604051908101604052809291908181526020018280546106b890613138565b80156107055780601f106106da57610100808354040283529160200191610705565b820191906000526020600020905b8154815290600101906020018083116106e857829003601f168201915b5050505050905090565b600061071a826119f4565b610759576040517f08c379a0000000000000000000000000000000000000000000000000000000008152600401610750906131db565b60405180910390fd5b6004600083815260200190815260200160002060009054906101000a900473ffffffffffffffffffffffffffffffffffffffff169050919050565b600061079f82610f00565b90508073ffffffffffffffffffffffffffffffffffffffff168373ffffffffffffffffffffffffffffffffffffffff160361080f576040517f08c379a00000000000000000000000000000000000000000000000000000000081526004016108069061326d565b60405180910390fd5b8073ffffffffffffffffffffffffffffffffffffffff1661082e611a60565b73ffffffffffffffffffffffffffffffffffffffff16148061085d575061085c81610857611a60565b6117ff565b5b61089c576040517f08c379a0000000000000000000000000000000000000000000000000000000008152600401610893906132ff565b60405180910390fd5b6108a68383611a68565b505050565b6000816108b781611b21565b6108f6576040517f08c379a00000000000000000000000000000000000000000000000000000000081526004016108ed9061336b565b60405180910390fd5b600e8360405161090691906133c7565b908152602001604051809103902054915050919050565b806109278161156f565b1561093157600080fd5b600960009054906101000a900460ff161561094b57600080fd5b610956848484611b98565b50505050565b606081610968816119f4565b6109a7576040517f08c379a000000000000000000000000000000000000000000000000000000000815260040161099e9061342a565b60405180910390fd5b600b600084815260200190815260200160002080546109c590613138565b80601f01602080910402602001604051908101604052809291908181526020018280546109f190613138565b8015610a3e5780601f10610a1357610100808354040283529160200191610a3e565b820191906000526020600020905b815481529060010190602001808311610a2157829003601f168201915b5050505050915050919050565b6000610a55611a60565b73ffffffffffffffffffffffffffffffffffffffff16610a736113a4565b73ffffffffffffffffffffffffffffffffffffffff1614610ac9576040517f08c379a0000000000000000000000000000000000000000000000000000000008152600401610ac090613496565b60405180910390fd5b600960009054906101000a900460ff1615610ae357600080fd5b81610aed81611b21565b610b2c576040517f08c379a0000000000000000000000000000000000000000000000000000000008152600401610b239061336b565b60405180910390fd5b610b36600a611bf8565b6000610b42600a611c0e565b905083600b60008381526020019081526020016000209081610b649190613662565b506001600e85604051610b7791906133c7565b90815260200160405180910390206000828254610b949190613763565b925050819055506000600f85604051610bad91906133c7565b90815260200160405180910390208054610bc690613138565b80601f0160208091040260200160405190810160405280929190818152602001828054610bf290613138565b8015610c3f5780601f10610c1457610100808354040283529160200191610c3f565b820191906000526020600020905b815481529060010190602001808311610c2257829003601f168201915b50505050509050610c508683611c1c565b610c5a8282611df5565b610c6382611e62565b42600c6000848152602001908152602001600020819055507f62c7d0ab3d4a5ce83ab60c8c32abd5fd0bdb5e26e780ee6b932699755639afab8282600c600086815260200190815260200160002054604051610cc193929190613797565b60405180910390a181935050505092915050565b610cdd611a60565b73ffffffffffffffffffffffffffffffffffffffff16610cfb6113a4565b73ffffffffffffffffffffffffffffffffffffffff1614610d51576040517f08c379a0000000000000000000000000000000000000000000000000000000008152600401610d4890613496565b60405180910390fd5b600960009054906101000a900460ff16610d6a57600080fd5b6000600960006101000a81548160ff0219169083151502179055507f5db9ee0a495bf2e6ff9c91a7834c1ba4fdd244a5e8aa4e537bd38aeae4b073aa33604051610db49190612ba3565b60405180910390a1565b80610dc88161156f565b15610dd257600080fd5b600960009054906101000a900460ff1615610dec57600080fd5b610df7848484611ec8565b50505050565b6000600960009054906101000a900460ff16905090565b610e1c611a60565b73ffffffffffffffffffffffffffffffffffffffff16610e3a6113a4565b73ffffffffffffffffffffffffffffffffffffffff1614610e90576040517f08c379a0000000000000000000000000000000000000000000000000000000008152600401610e8790613496565b60405180910390fd5b80610e9a816119f4565b610ed9576040517f08c379a0000000000000000000000000000000000000000000000000000000008152600401610ed09061342a565b60405180910390fd5b600960009054906101000a900460ff1615610ef357600080fd5b610efc82611ee8565b5050565b6000806002600084815260200190815260200160002060009054906101000a900473ffffffffffffffffffffffffffffffffffffffff169050600073ffffffffffffffffffffffffffffffffffffffff168173ffffffffffffffffffffffffffffffffffffffff1603610fa8576040517f08c379a0000000000000000000000000000000000000000000000000000000008152600401610f9f90613847565b60405180910390fd5b80915050919050565b60008073ffffffffffffffffffffffffffffffffffffffff168273ffffffffffffffffffffffffffffffffffffffff1603611021576040517f08c379a0000000000000000000000000000000000000000000000000000000008152600401611018906138d9565b60405180910390fd5b600360008373ffffffffffffffffffffffffffffffffffffffff1673ffffffffffffffffffffffffffffffffffffffff168152602001908152602001600020549050919050565b611070611a60565b73ffffffffffffffffffffffffffffffffffffffff1661108e6113a4565b73ffffffffffffffffffffffffffffffffffffffff16146110e4576040517f08c379a00000000000000000000000000000000000000000000000000000000081526004016110db90613496565b60405180910390fd5b6110ee6000611f4e565b565b6110f8611a60565b73ffffffffffffffffffffffffffffffffffffffff166111166113a4565b73ffffffffffffffffffffffffffffffffffffffff161461116c576040517f08c379a000000000000000000000000000000000000000000000000000000000815260040161116390613496565b60405180910390fd5b600960009054906101000a900460ff161561118657600080fd5b61118f83611b21565b156111cf576040517f08c379a00000000000000000000000000000000000000000000000000000000081526004016111c690613945565b60405180910390fd5b81600d846040516111e091906133c7565b908152602001604051809103902060006101000a81548173ffffffffffffffffffffffffffffffffffffffff021916908373ffffffffffffffffffffffffffffffffffffffff1602179055506000600e8460405161123e91906133c7565b90815260200160405180910390208190555080600f8460405161126191906133c7565b9081526020016040518091039020908161127b9190613662565b507f22064cb5620abd120c2e3ce072e223da3c503d87ebe06c3310915de76fc6453383826040516112ad929190613965565b60405180910390a1505050565b6112c2611a60565b73ffffffffffffffffffffffffffffffffffffffff166112e06113a4565b73ffffffffffffffffffffffffffffffffffffffff1614611336576040517f08c379a000000000000000000000000000000000000000000000000000000000815260040161132d90613496565b60405180910390fd5b600960009054906101000a900460ff161561135057600080fd5b6001600960006101000a81548160ff0219169083151502179055507f62e78cea01bee320cd4e420270b5ea74000d11b0c9f74754ebdbfc544b05a2583360405161139a9190612ba3565b60405180910390a1565b6000600760009054906101000a900473ffffffffffffffffffffffffffffffffffffffff16905090565b6060600180546113dd90613138565b80601f016020809104026020016040519081016040528092919081815260200182805461140990613138565b80156114565780601f1061142b57610100808354040283529160200191611456565b820191906000526020600020905b81548152906001019060200180831161143957829003601f168201915b5050505050905090565b60008161146c816119f4565b6114ab576040517f08c379a00000000000000000000000000000000000000000000000000000000081526004016114a29061342a565b60405180910390fd5b600c600084815260200190815260200160002054915050919050565b6000816114d381611b21565b611512576040517f08c379a00000000000000000000000000000000000000000000000000000000081526004016115099061336b565b60405180910390fd5b600d8360405161152291906133c7565b908152602001604051809103902060009054906101000a900473ffffffffffffffffffffffffffffffffffffffff16915050919050565b61156b611564611a60565b8383612014565b5050565b600061157a82612180565b9050919050565b8161158b8161156f565b1561159557600080fd5b600960009054906101000a900460ff16156115af57600080fd5b6115bb858585856121aa565b5050505050565b60606115cd826119f4565b61160c576040517f08c379a000000000000000000000000000000000000000000000000000000000815260040161160390613a0e565b60405180910390fd5b600060066000848152602001908152602001600020805461162c90613138565b80601f016020809104026020016040519081016040528092919081815260200182805461165890613138565b80156116a55780601f1061167a576101008083540402835291602001916116a5565b820191906000526020600020905b81548152906001019060200180831161168857829003601f168201915b5050505050905060006116b661220c565b905060008151036116cb57819250505061170e565b6000825111156117005780826040516020016116e8929190613a2e565b6040516020818303038152906040529250505061170e565b61170984612223565b925050505b919050565b61171b611a60565b73ffffffffffffffffffffffffffffffffffffffff166117396113a4565b73ffffffffffffffffffffffffffffffffffffffff161461178f576040517f08c379a000000000000000000000000000000000000000000000000000000000815260040161178690613496565b60405180910390fd5b80611799816119f4565b6117d8576040517f08c379a00000000000000000000000000000000000000000000000000000000081526004016117cf9061342a565b60405180910390fd5b600960009054906101000a900460ff16156117f257600080fd5b6117fb82611e62565b5050565b6000600560008473ffffffffffffffffffffffffffffffffffffffff1673ffffffffffffffffffffffffffffffffffffffff16815260200190815260200160002060008373ffffffffffffffffffffffffffffffffffffffff1673ffffffffffffffffffffffffffffffffffffffff16815260200190815260200160002060009054906101000a900460ff16905092915050565b61189b611a60565b73ffffffffffffffffffffffffffffffffffffffff166118b96113a4565b73ffffffffffffffffffffffffffffffffffffffff161461190f576040517f08c379a000000000000000000000000000000000000000000000000000000000815260040161190690613496565b60405180910390fd5b600073ffffffffffffffffffffffffffffffffffffffff168173ffffffffffffffffffffffffffffffffffffffff160361197e576040517f08c379a000000000000000000000000000000000000000000000000000000000815260040161197590613ac4565b60405180910390fd5b61198781611f4e565b50565b60007f01ffc9a7000000000000000000000000000000000000000000000000000000007bffffffffffffffffffffffffffffffffffffffffffffffffffffffff1916827bffffffffffffffffffffffffffffffffffffffffffffffffffffffff1916149050919050565b60008073ffffffffffffffffffffffffffffffffffffffff166002600084815260200190815260200160002060009054906101000a900473ffffffffffffffffffffffffffffffffffffffff1673ffffffffffffffffffffffffffffffffffffffff1614159050919050565b600033905090565b816004600083815260200190815260200160002060006101000a81548173ffffffffffffffffffffffffffffffffffffffff021916908373ffffffffffffffffffffffffffffffffffffffff160217905550808273ffffffffffffffffffffffffffffffffffffffff16611adb83610f00565b73ffffffffffffffffffffffffffffffffffffffff167f8c5be1e5ebec7d5bd14f71427d1e84f3dd0314c0f7b2291e5b200ac8c7c3b92560405160405180910390a45050565b60008073ffffffffffffffffffffffffffffffffffffffff16600d83604051611b4a91906133c7565b908152602001604051809103902060009054906101000a900473ffffffffffffffffffffffffffffffffffffffff1673ffffffffffffffffffffffffffffffffffffffff1614159050919050565b611ba9611ba3611a60565b826122ca565b611be8576040517f08c379a0000000000000000000000000000000000000000000000000000000008152600401611bdf90613b56565b60405180910390fd5b611bf38383836123a8565b505050565b6001816000016000828254019250508190555050565b600081600001549050919050565b600073ffffffffffffffffffffffffffffffffffffffff168273ffffffffffffffffffffffffffffffffffffffff1603611c8b576040517f08c379a0000000000000000000000000000000000000000000000000000000008152600401611c8290613bc2565b60405180910390fd5b611c94816119f4565b15611cd4576040517f08c379a0000000000000000000000000000000000000000000000000000000008152600401611ccb90613c2e565b60405180910390fd5b611ce06000838361260e565b6001600360008473ffffffffffffffffffffffffffffffffffffffff1673ffffffffffffffffffffffffffffffffffffffff1681526020019081526020016000206000828254611d309190613763565b92505081905550816002600083815260200190815260200160002060006101000a81548173ffffffffffffffffffffffffffffffffffffffff021916908373ffffffffffffffffffffffffffffffffffffffff160217905550808273ffffffffffffffffffffffffffffffffffffffff16600073ffffffffffffffffffffffffffffffffffffffff167fddf252ad1be2c89b69c2b068fc378daa952ba7f163c4a11628f55a4df523b3ef60405160405180910390a4611df160008383612613565b5050565b611dfe826119f4565b611e3d576040517f08c379a0000000000000000000000000000000000000000000000000000000008152600401611e3490613cc0565b60405180910390fd5b80600660008481526020019081526020016000209081611e5d9190613662565b505050565b60016008600083815260200190815260200160002060006101000a81548160ff0219169083151502179055507f032bc66be43dbccb7487781d168eb7bda224628a3b2c3388bdf69b532a3a161181604051611ebd9190612db7565b60405180910390a150565b611ee383838360405180602001604052806000815250611581565b505050565b60006008600083815260200190815260200160002060006101000a81548160ff0219169083151502179055507ff27b6ce5b2f5e68ddb2fd95a8a909d4ecf1daaac270935fff052feacb24f184281604051611f439190612db7565b60405180910390a150565b6000600760009054906101000a900473ffffffffffffffffffffffffffffffffffffffff16905081600760006101000a81548173ffffffffffffffffffffffffffffffffffffffff021916908373ffffffffffffffffffffffffffffffffffffffff1602179055508173ffffffffffffffffffffffffffffffffffffffff168173ffffffffffffffffffffffffffffffffffffffff167f8be0079c531659141344cd1fd0a4f28419497f9722a3daafe3b4186f6b6457e060405160405180910390a35050565b8173ffffffffffffffffffffffffffffffffffffffff168373ffffffffffffffffffffffffffffffffffffffff1603612082576040517f08c379a000000000000000000000000000000000000000000000000000000000815260040161207990613d2c565b60405180910390fd5b80600560008573ffffffffffffffffffffffffffffffffffffffff1673ffffffffffffffffffffffffffffffffffffffff16815260200190815260200160002060008473ffffffffffffffffffffffffffffffffffffffff1673ffffffffffffffffffffffffffffffffffffffff16815260200190815260200160002060006101000a81548160ff0219169083151502179055508173ffffffffffffffffffffffffffffffffffffffff168373ffffffffffffffffffffffffffffffffffffffff167f17307eab39ab6107e8899845ad3d59bd9653f200f220920489ca2b5937696c31836040516121739190612a32565b60405180910390a3505050565b60006008600083815260200190815260200160002060009054906101000a900460ff169050919050565b6121bb6121b5611a60565b836122ca565b6121fa576040517f08c379a00000000000000000000000000000000000000000000000000000000081526004016121f190613b56565b60405180910390fd5b61220684848484612618565b50505050565b606060405180602001604052806000815250905090565b606061222e826119f4565b61226d576040517f08c379a000000000000000000000000000000000000000000000000000000000815260040161226490613dbe565b60405180910390fd5b600061227761220c565b9050600081511161229757604051806020016040528060008152506122c2565b806122a184612674565b6040516020016122b2929190613a2e565b6040516020818303038152906040525b915050919050565b60006122d5826119f4565b612314576040517f08c379a000000000000000000000000000000000000000000000000000000000815260040161230b90613e50565b60405180910390fd5b600061231f83610f00565b90508073ffffffffffffffffffffffffffffffffffffffff168473ffffffffffffffffffffffffffffffffffffffff161480612361575061236081856117ff565b5b8061239f57508373ffffffffffffffffffffffffffffffffffffffff166123878461070f565b73ffffffffffffffffffffffffffffffffffffffff16145b91505092915050565b8273ffffffffffffffffffffffffffffffffffffffff166123c882610f00565b73ffffffffffffffffffffffffffffffffffffffff161461241e576040517f08c379a000000000000000000000000000000000000000000000000000000000815260040161241590613ee2565b60405180910390fd5b600073ffffffffffffffffffffffffffffffffffffffff168273ffffffffffffffffffffffffffffffffffffffff160361248d576040517f08c379a000000000000000000000000000000000000000000000000000000000815260040161248490613f74565b60405180910390fd5b61249883838361260e565b6124a3600082611a68565b6001600360008573ffffffffffffffffffffffffffffffffffffffff1673ffffffffffffffffffffffffffffffffffffffff16815260200190815260200160002060008282546124f39190613f94565b925050819055506001600360008473ffffffffffffffffffffffffffffffffffffffff1673ffffffffffffffffffffffffffffffffffffffff168152602001908152602001600020600082825461254a9190613763565b92505081905550816002600083815260200190815260200160002060006101000a81548173ffffffffffffffffffffffffffffffffffffffff021916908373ffffffffffffffffffffffffffffffffffffffff160217905550808273ffffffffffffffffffffffffffffffffffffffff168473ffffffffffffffffffffffffffffffffffffffff167fddf252ad1be2c89b69c2b068fc378daa952ba7f163c4a11628f55a4df523b3ef60405160405180910390a4612609838383612613565b505050565b505050565b505050565b6126238484846123a8565b61262f848484846127d4565b61266e576040517f08c379a00000000000000000000000000000000000000000000000000000000081526004016126659061403a565b60405180910390fd5b50505050565b6060600082036126bb576040518060400160405280600181526020017f300000000000000000000000000000000000000000000000000000000000000081525090506127cf565b600082905060005b600082146126ed5780806126d69061405a565b915050600a826126e691906140d1565b91506126c3565b60008167ffffffffffffffff81111561270957612708612c34565b5b6040519080825280601f01601f19166020018201604052801561273b5781602001600182028036833780820191505090505b5090505b600085146127c8576001826127549190613f94565b9150600a856127639190614102565b603061276f9190613763565b60f81b81838151811061278557612784614133565b5b60200101907effffffffffffffffffffffffffffffffffffffffffffffffffffffffffffff1916908160001a905350600a856127c191906140d1565b945061273f565b8093505050505b919050565b60006127f58473ffffffffffffffffffffffffffffffffffffffff1661295b565b1561294e578373ffffffffffffffffffffffffffffffffffffffff1663150b7a0261281e611a60565b8786866040518563ffffffff1660e01b815260040161284094939291906141b7565b6020604051808303816000875af192505050801561287c57506040513d601f19601f820116820180604052508101906128799190614218565b60015b6128fe573d80600081146128ac576040519150601f19603f3d011682016040523d82523d6000602084013e6128b1565b606091505b5060008151036128f6576040517f08c379a00000000000000000000000000000000000000000000000000000000081526004016128ed9061403a565b60405180910390fd5b805181602001fd5b63150b7a0260e01b7bffffffffffffffffffffffffffffffffffffffffffffffffffffffff1916817bffffffffffffffffffffffffffffffffffffffffffffffffffffffff191614915050612953565b600190505b949350505050565b6000808273ffffffffffffffffffffffffffffffffffffffff163b119050919050565b6000604051905090565b600080fd5b600080fd5b60007fffffffff0000000000000000000000000000000000000000000000000000000082169050919050565b6129c781612992565b81146129d257600080fd5b50565b6000813590506129e4816129be565b92915050565b600060208284031215612a00576129ff612988565b5b6000612a0e848285016129d5565b91505092915050565b60008115159050919050565b612a2c81612a17565b82525050565b6000602082019050612a476000830184612a23565b92915050565b600081519050919050565b600082825260208201905092915050565b60005b83811015612a87578082015181840152602081019050612a6c565b60008484015250505050565b6000601f19601f8301169050919050565b6000612aaf82612a4d565b612ab98185612a58565b9350612ac9818560208601612a69565b612ad281612a93565b840191505092915050565b60006020820190508181036000830152612af78184612aa4565b905092915050565b6000819050919050565b612b1281612aff565b8114612b1d57600080fd5b50565b600081359050612b2f81612b09565b92915050565b600060208284031215612b4b57612b4a612988565b5b6000612b5984828501612b20565b91505092915050565b600073ffffffffffffffffffffffffffffffffffffffff82169050919050565b6000612b8d82612b62565b9050919050565b612b9d81612b82565b82525050565b6000602082019050612bb86000830184612b94565b92915050565b612bc781612b82565b8114612bd257600080fd5b50565b600081359050612be481612bbe565b92915050565b60008060408385031215612c0157612c00612988565b5b6000612c0f85828601612bd5565b9250506020612c2085828601612b20565b9150509250929050565b600080fd5b600080fd5b7f4e487b7100000000000000000000000000000000000000000000000000000000600052604160045260246000fd5b612c6c82612a93565b810181811067ffffffffffffffff82111715612c8b57612c8a612c34565b5b80604052505050565b6000612c9e61297e565b9050612caa8282612c63565b919050565b600067ffffffffffffffff821115612cca57612cc9612c34565b5b612cd382612a93565b9050602081019050919050565b82818337600083830152505050565b6000612d02612cfd84612caf565b612c94565b905082815260208101848484011115612d1e57612d1d612c2f565b5b612d29848285612ce0565b509392505050565b600082601f830112612d4657612d45612c2a565b5b8135612d56848260208601612cef565b91505092915050565b600060208284031215612d7557612d74612988565b5b600082013567ffffffffffffffff811115612d9357612d9261298d565b5b612d9f84828501612d31565b91505092915050565b612db181612aff565b82525050565b6000602082019050612dcc6000830184612da8565b92915050565b600080600060608486031215612deb57612dea612988565b5b6000612df986828701612bd5565b9350506020612e0a86828701612bd5565b9250506040612e1b86828701612b20565b9150509250925092565b60008060408385031215612e3c57612e3b612988565b5b6000612e4a85828601612bd5565b925050602083013567ffffffffffffffff811115612e6b57612e6a61298d565b5b612e7785828601612d31565b9150509250929050565b600060208284031215612e9757612e96612988565b5b6000612ea584828501612bd5565b91505092915050565b600080600060608486031215612ec757612ec6612988565b5b600084013567ffffffffffffffff811115612ee557612ee461298d565b5b612ef186828701612d31565b9350506020612f0286828701612bd5565b925050604084013567ffffffffffffffff811115612f2357612f2261298d565b5b612f2f86828701612d31565b9150509250925092565b612f4281612a17565b8114612f4d57600080fd5b50565b600081359050612f5f81612f39565b92915050565b60008060408385031215612f7c57612f7b612988565b5b6000612f8a85828601612bd5565b9250506020612f9b85828601612f50565b9150509250929050565b600067ffffffffffffffff821115612fc057612fbf612c34565b5b612fc982612a93565b9050602081019050919050565b6000612fe9612fe484612fa5565b612c94565b90508281526020810184848401111561300557613004612c2f565b5b613010848285612ce0565b509392505050565b600082601f83011261302d5761302c612c2a565b5b813561303d848260208601612fd6565b91505092915050565b600080600080608085870312156130605761305f612988565b5b600061306e87828801612bd5565b945050602061307f87828801612bd5565b935050604061309087828801612b20565b925050606085013567ffffffffffffffff8111156130b1576130b061298d565b5b6130bd87828801613018565b91505092959194509250565b600080604083850312156130e0576130df612988565b5b60006130ee85828601612bd5565b92505060206130ff85828601612bd5565b9150509250929050565b7f4e487b7100000000000000000000000000000000000000000000000000000000600052602260045260246000fd5b6000600282049050600182168061315057607f821691505b60208210810361316357613162613109565b5b50919050565b7f4552433732313a20617070726f76656420717565727920666f72206e6f6e657860008201527f697374656e7420746f6b656e0000000000000000000000000000000000000000602082015250565b60006131c5602c83612a58565b91506131d082613169565b604082019050919050565b600060208201905081810360008301526131f4816131b8565b9050919050565b7f4552433732313a20617070726f76616c20746f2063757272656e74206f776e6560008201527f7200000000000000000000000000000000000000000000000000000000000000602082015250565b6000613257602183612a58565b9150613262826131fb565b604082019050919050565b600060208201905081810360008301526132868161324a565b9050919050565b7f4552433732313a20617070726f76652063616c6c6572206973206e6f74206f7760008201527f6e6572206e6f7220617070726f76656420666f7220616c6c0000000000000000602082015250565b60006132e9603883612a58565b91506132f48261328d565b604082019050919050565b60006020820190508181036000830152613318816132dc565b9050919050565b7f506f61703a206e6f6e6578697374656e7420636f6c6c656374696f6e00000000600082015250565b6000613355601c83612a58565b91506133608261331f565b602082019050919050565b6000602082019050818103600083015261338481613348565b9050919050565b600081905092915050565b60006133a182612a4d565b6133ab818561338b565b93506133bb818560208601612a69565b80840191505092915050565b60006133d38284613396565b915081905092915050565b7f506f61703a206e6f6e6578697374656e7420746f6b656e000000000000000000600082015250565b6000613414601783612a58565b915061341f826133de565b602082019050919050565b6000602082019050818103600083015261344381613407565b9050919050565b7f4f776e61626c653a2063616c6c6572206973206e6f7420746865206f776e6572600082015250565b6000613480602083612a58565b915061348b8261344a565b602082019050919050565b600060208201905081810360008301526134af81613473565b9050919050565b60008190508160005260206000209050919050565b60006020601f8301049050919050565b600082821b905092915050565b6000600883026135187fffffffffffffffffffffffffffffffffffffffffffffffffffffffffffffffff826134db565b61352286836134db565b95508019841693508086168417925050509392505050565b6000819050919050565b600061355f61355a61355584612aff565b61353a565b612aff565b9050919050565b6000819050919050565b61357983613544565b61358d61358582613566565b8484546134e8565b825550505050565b600090565b6135a2613595565b6135ad818484613570565b505050565b5b818110156135d1576135c660008261359a565b6001810190506135b3565b5050565b601f821115613616576135e7816134b6565b6135f0846134cb565b810160208510156135ff578190505b61361361360b856134cb565b8301826135b2565b50505b505050565b600082821c905092915050565b60006136396000198460080261361b565b1980831691505092915050565b60006136528383613628565b9150826002028217905092915050565b61366b82612a4d565b67ffffffffffffffff81111561368457613683612c34565b5b61368e8254613138565b6136998282856135d5565b600060209050601f8311600181146136cc57600084156136ba578287015190505b6136c48582613646565b86555061372c565b601f1984166136da866134b6565b60005b82811015613702578489015182556001820191506020850194506020810190506136dd565b8683101561371f578489015161371b601f891682613628565b8355505b6001600288020188555050505b505050505050565b7f4e487b7100000000000000000000000000000000000000000000000000000000600052601160045260246000fd5b600061376e82612aff565b915061377983612aff565b925082820190508082111561379157613790613734565b5b92915050565b60006060820190506137ac6000830186612da8565b81810360208301526137be8185612aa4565b90506137cd6040830184612da8565b949350505050565b7f4552433732313a206f776e657220717565727920666f72206e6f6e657869737460008201527f656e7420746f6b656e0000000000000000000000000000000000000000000000602082015250565b6000613831602983612a58565b915061383c826137d5565b604082019050919050565b6000602082019050818103600083015261386081613824565b9050919050565b7f4552433732313a2061646472657373207a65726f206973206e6f74206120766160008201527f6c6964206f776e65720000000000000000000000000000000000000000000000602082015250565b60006138c3602983612a58565b91506138ce82613867565b604082019050919050565b600060208201905081810360008301526138f2816138b6565b9050919050565b7f506f61703a20636f6c6c656374696f6e20616c72656164792063726561746564600082015250565b600061392f602083612a58565b915061393a826138f9565b602082019050919050565b6000602082019050818103600083015261395e81613922565b9050919050565b6000604082019050818103600083015261397f8185612aa4565b905081810360208301526139938184612aa4565b90509392505050565b7f45524337323155524953746f726167653a2055524920717565727920666f722060008201527f6e6f6e6578697374656e7420746f6b656e000000000000000000000000000000602082015250565b60006139f8603183612a58565b9150613a038261399c565b604082019050919050565b60006020820190508181036000830152613a27816139eb565b9050919050565b6000613a3a8285613396565b9150613a468284613396565b91508190509392505050565b7f4f776e61626c653a206e6577206f776e657220697320746865207a65726f206160008201527f6464726573730000000000000000000000000000000000000000000000000000602082015250565b6000613aae602683612a58565b9150613ab982613a52565b604082019050919050565b60006020820190508181036000830152613add81613aa1565b9050919050565b7f4552433732313a207472616e736665722063616c6c6572206973206e6f74206f60008201527f776e6572206e6f7220617070726f766564000000000000000000000000000000602082015250565b6000613b40603183612a58565b9150613b4b82613ae4565b604082019050919050565b60006020820190508181036000830152613b6f81613b33565b9050919050565b7f4552433732313a206d696e7420746f20746865207a65726f2061646472657373600082015250565b6000613bac602083612a58565b9150613bb782613b76565b602082019050919050565b60006020820190508181036000830152613bdb81613b9f565b9050919050565b7f4552433732313a20746f6b656e20616c7265616479206d696e74656400000000600082015250565b6000613c18601c83612a58565b9150613c2382613be2565b602082019050919050565b60006020820190508181036000830152613c4781613c0b565b9050919050565b7f45524337323155524953746f726167653a2055524920736574206f66206e6f6e60008201527f6578697374656e7420746f6b656e000000000000000000000000000000000000602082015250565b6000613caa602e83612a58565b9150613cb582613c4e565b604082019050919050565b60006020820190508181036000830152613cd981613c9d565b9050919050565b7f4552433732313a20617070726f766520746f2063616c6c657200000000000000600082015250565b6000613d16601983612a58565b9150613d2182613ce0565b602082019050919050565b60006020820190508181036000830152613d4581613d09565b9050919050565b7f4552433732314d657461646174613a2055524920717565727920666f72206e6f60008201527f6e6578697374656e7420746f6b656e0000000000000000000000000000000000602082015250565b6000613da8602f83612a58565b9150613db382613d4c565b604082019050919050565b60006020820190508181036000830152613dd781613d9b565b9050919050565b7f4552433732313a206f70657261746f7220717565727920666f72206e6f6e657860008201527f697374656e7420746f6b656e0000000000000000000000000000000000000000602082015250565b6000613e3a602c83612a58565b9150613e4582613dde565b604082019050919050565b60006020820190508181036000830152613e6981613e2d565b9050919050565b7f4552433732313a207472616e736665722066726f6d20696e636f72726563742060008201527f6f776e6572000000000000000000000000000000000000000000000000000000602082015250565b6000613ecc602583612a58565b9150613ed782613e70565b604082019050919050565b60006020820190508181036000830152613efb81613ebf565b9050919050565b7f4552433732313a207472616e7366657220746f20746865207a65726f2061646460008201527f7265737300000000000000000000000000000000000000000000000000000000602082015250565b6000613f5e602483612a58565b9150613f6982613f02565b604082019050919050565b60006020820190508181036000830152613f8d81613f51565b9050919050565b6000613f9f82612aff565b9150613faa83612aff565b9250828203905081811115613fc257613fc1613734565b5b92915050565b7f4552433732313a207472616e7366657220746f206e6f6e20455243373231526560008201527f63656976657220696d706c656d656e7465720000000000000000000000000000602082015250565b6000614024603283612a58565b915061402f82613fc8565b604082019050919050565b6000602082019050818103600083015261405381614017565b9050919050565b600061406582612aff565b91507fffffffffffffffffffffffffffffffffffffffffffffffffffffffffffffffff820361409757614096613734565b5b600182019050919050565b7f4e487b7100000000000000000000000000000000000000000000000000000000600052601260045260246000fd5b60006140dc82612aff565b91506140e783612aff565b9250826140f7576140f66140a2565b5b828204905092915050565b600061410d82612aff565b915061411883612aff565b925082614128576141276140a2565b5b828206905092915050565b7f4e487b7100000000000000000000000000000000000000000000000000000000600052603260045260246000fd5b600081519050919050565b600082825260208201905092915050565b600061418982614162565b614193818561416d565b93506141a3818560208601612a69565b6141ac81612a93565b840191505092915050565b60006080820190506141cc6000830187612b94565b6141d96020830186612b94565b6141e66040830185612da8565b81810360608301526141f8818461417e565b905095945050505050565b600081519050614212816129be565b92915050565b60006020828403121561422e5761422d612988565b5b600061423c84828501614203565b9150509291505056fea26469706673582212201a3a76e20339dead2e07a8f772c6e31d42a6064cdafa7c6ac8db71a48348716e64736f6c63430008110033",
  "immutableReferences": {},
  "source": "//Contract based on [<https://docs.openzeppelin.com/contracts/3.x/erc721>](<https://docs.openzeppelin.com/contracts/3.x/erc721>)\n// SPDX-License-Identifier: MIT\npragma solidity ^0.8.0;\n\nimport \"../node_modules/@klaytn/contracts/token/ERC721/ERC721.sol\";\nimport \"../node_modules/@klaytn/contracts/utils/Counters.sol\";\nimport \"../node_modules/@klaytn/contracts/access/Ownable.sol\";\nimport \"../node_modules/@klaytn/contracts/token/ERC721/extensions/ERC721URIStorage.sol\";\nimport \"./Sbt.sol\";\nimport \"./Pausable.sol\";\n\ncontract Poap is ERC721URIStorage, Ownable, Sbt, Pausable {\n\n  //utils\n  using Counters for Counters.Counter;\n  Counters.Counter private _tokenIds;\n\n  constructor() ERC721(\"Poap\", \"DYE\") {}\n\n  //events\n  event CreateCollection(string collectionName, string metaURI);\n  event MintToken(uint256 tokenId, string tokenURI, uint256 createdAt);\n\n  //mapping\n  mapping(uint256 => string) private _tokenCollection;\n\n  mapping(uint256 => uint256) private _tokenCreatedAt;\n\n  mapping(string => address) private _collectionOwners;\n\n  mapping(string => uint256) private _collectionMinted;\n\n  mapping(string => string) private _collectionMeta;\n\n  //transactions\n\n  function transferOwnership(address newOwner) public override onlyOwner {\n    require(newOwner != address(0), \"Ownable: new owner is the zero address\");\n    _transferOwnership(newOwner);\n  }\n\n  function createCollection(\n    string memory collectionName,\n    address owner,\n    string memory metaURI\n  ) public onlyOwner whenNotPaused {\n    require(!_existsCol(collectionName), \"Poap: collection already created\");\n\n    _collectionOwners[collectionName] = owner;\n    _collectionMinted[collectionName] = 0;\n    _collectionMeta[collectionName] = metaURI;\n\n    emit CreateCollection(collectionName, metaURI);\n  }\n\n  function mintToken(\n    address recipient,\n    string memory collectionName\n  ) public onlyOwner whenNotPaused existCollection(collectionName) returns (uint256) {\n    _tokenIds.increment();\n\n    uint256 newItemId = _tokenIds.current();\n\n    _tokenCollection[newItemId] = collectionName;\n    _collectionMinted[collectionName] += 1;\n    string memory tokenURI = _collectionMeta[collectionName];\n\n    _mint(recipient, newItemId);\n    _setTokenURI(newItemId, tokenURI);\n    _lock(newItemId);\n\n    _tokenCreatedAt[newItemId] = block.timestamp;\n\n    emit MintToken(newItemId, tokenURI, _tokenCreatedAt[newItemId]);\n\n    return newItemId;\n  }\n\n  function unlock(\n    uint256 tokenId\n  ) public onlyOwner existToken(tokenId) whenNotPaused {\n    _unlock(tokenId);\n  }\n\n  function lock(\n    uint256 tokenId\n  ) public onlyOwner existToken(tokenId) whenNotPaused {\n    _lock(tokenId);\n  }\n\n  //view\n\n  function tokenCollection(\n    uint256 tokenId\n  ) public view existToken(tokenId) returns (string memory) {\n    return _tokenCollection[tokenId];\n  }\n\n  function collectionMinted(\n    string memory collectionName\n  ) public view existCollection(collectionName) returns (uint256) {\n    return _collectionMinted[collectionName];\n  }\n\n  function collectionOwner(\n    string memory collectionName\n  ) public view existCollection(collectionName) returns (address) {\n    return _collectionOwners[collectionName];\n  }\n\n  function tokenCreatedAt(\n    uint256 tokenId\n  ) public view existToken(tokenId) returns (uint256) {\n    return _tokenCreatedAt[tokenId];\n  }\n\n  function locked(uint256 tokenId) public view override returns (bool) {\n    return super.locked(tokenId);\n  }\n\n  //sbt\n\n  function safeTransferFrom(\n    address from,\n    address to,\n    uint256 tokenId\n  ) public override isUnLocked(tokenId) whenNotPaused {\n    super.safeTransferFrom(from, to, tokenId);\n  }\n\n  function safeTransferFrom(\n    address from,\n    address to,\n    uint256 tokenId,\n    bytes memory data\n  ) public override isUnLocked(tokenId) whenNotPaused {\n    super.safeTransferFrom(from, to, tokenId, data);\n  }\n\n  function transferFrom(\n    address from,\n    address to,\n    uint256 tokenId\n  ) public override isUnLocked(tokenId) whenNotPaused {\n    super.transferFrom(from, to, tokenId);\n  }\n\n  //internal\n\n  function _existsCol(\n    string memory collectionName\n  ) internal view virtual returns (bool) {\n    return _collectionOwners[collectionName] != address(0);\n  }\n\n  //modifier\n  modifier existToken(uint256 tokenId) {\n    require(_exists(tokenId), \"Poap: nonexistent token\");\n    _;\n  }\n\n  modifier existCollection(string memory collectionName) {\n    require(_existsCol(collectionName), \"Poap: nonexistent collection\");\n    _;\n  }\n}\n",
  "sourcePath": "/home/kdm/hdd/project/BEB-07-final-DidYouEat/contracts/contracts/Poap.sol",
  "compiler": {
    "name": "solc",
    "version": "0.8.17+commit.8df45f5f.Emscripten.clang"
  },
  "schemaVersion": "3.4.11",
  "updatedAt": "2023-01-28T21:39:31.390Z",
  "networkType": "ethereum",
  "devdoc": {
    "kind": "dev",
    "methods": {
      "approve(address,uint256)": {
        "details": "See {IERC721-approve}."
      },
      "balanceOf(address)": {
        "details": "See {IERC721-balanceOf}."
      },
      "getApproved(uint256)": {
        "details": "See {IERC721-getApproved}."
      },
      "isApprovedForAll(address,address)": {
        "details": "See {IERC721-isApprovedForAll}."
      },
      "locked(uint256)": {
        "details": "SBTs assigned to zero address are considered invalid, and queries about them do throw.",
        "params": {
          "tokenId": "The identifier for an SBT."
        }
      },
      "name()": {
        "details": "See {IERC721Metadata-name}."
      },
      "owner()": {
        "details": "Returns the address of the current owner."
      },
      "ownerOf(uint256)": {
        "details": "See {IERC721-ownerOf}."
      },
      "pause()": {
        "details": "called by the owner to pause, triggers stopped state"
      },
      "paused()": {
        "returns": {
          "_0": "true if the contract is paused, false otherwise."
        }
      },
      "renounceOwnership()": {
        "details": "Leaves the contract without owner. It will not be possible to call `onlyOwner` functions anymore. Can only be called by the current owner. NOTE: Renouncing ownership will leave the contract without an owner, thereby removing any functionality that is only available to the owner."
      },
      "safeTransferFrom(address,address,uint256)": {
        "details": "See {IERC721-safeTransferFrom}."
      },
      "safeTransferFrom(address,address,uint256,bytes)": {
        "details": "See {IERC721-safeTransferFrom}."
      },
      "setApprovalForAll(address,bool)": {
        "details": "See {IERC721-setApprovalForAll}."
      },
      "supportsInterface(bytes4)": {
        "details": "See {IERC165-supportsInterface}."
      },
      "symbol()": {
        "details": "See {IERC721Metadata-symbol}."
      },
      "tokenURI(uint256)": {
        "details": "See {IERC721Metadata-tokenURI}."
      },
      "transferFrom(address,address,uint256)": {
        "details": "See {IERC721-transferFrom}."
      },
      "transferOwnership(address)": {
        "details": "Transfers ownership of the contract to a new account (`newOwner`). Can only be called by the current owner."
      },
      "unpause()": {
        "details": "called by the owner to unpause, returns to normal state"
      }
    },
    "version": 1
  },
  "userdoc": {
    "events": {
      "Locked(uint256)": {
        "notice": "Emitted when the locking status is changed to locked."
      },
      "Unlocked(uint256)": {
        "notice": "Emitted when the locking status is changed to unlocked."
      }
    },
    "kind": "user",
    "methods": {
      "locked(uint256)": {
        "notice": "Returns the locking status of an Soulbound Token"
      }
    },
    "version": 1
  }
}