{
  "contractName": "Poap",
  "abi": [
    {
      "inputs": [],
      "stateMutability": "nonpayable",
      "type": "constructor"
    },
    {
      "anonymous": false,
      "inputs": [
        {
          "indexed": true,
          "internalType": "address",
          "name": "owner",
          "type": "address"
        },
        {
          "indexed": true,
          "internalType": "address",
          "name": "approved",
          "type": "address"
        },
        {
          "indexed": true,
          "internalType": "uint256",
          "name": "tokenId",
          "type": "uint256"
        }
      ],
      "name": "Approval",
      "type": "event"
    },
    {
      "anonymous": false,
      "inputs": [
        {
          "indexed": true,
          "internalType": "address",
          "name": "owner",
          "type": "address"
        },
        {
          "indexed": true,
          "internalType": "address",
          "name": "operator",
          "type": "address"
        },
        {
          "indexed": false,
          "internalType": "bool",
          "name": "approved",
          "type": "bool"
        }
      ],
      "name": "ApprovalForAll",
      "type": "event"
    },
    {
      "anonymous": false,
      "inputs": [
        {
          "indexed": false,
          "internalType": "string",
          "name": "collectionName",
          "type": "string"
        },
        {
          "indexed": false,
          "internalType": "string",
          "name": "metaURI",
          "type": "string"
        }
      ],
      "name": "CreateCollection",
      "type": "event"
    },
    {
      "anonymous": false,
      "inputs": [
        {
          "indexed": false,
          "internalType": "uint256",
          "name": "tokenId",
          "type": "uint256"
        }
      ],
      "name": "Locked",
      "type": "event"
    },
    {
      "anonymous": false,
      "inputs": [
        {
          "indexed": false,
          "internalType": "uint256",
          "name": "tokenId",
          "type": "uint256"
        },
        {
          "indexed": false,
          "internalType": "string",
          "name": "tokenURI",
          "type": "string"
        },
        {
          "indexed": false,
          "internalType": "uint256",
          "name": "createdAt",
          "type": "uint256"
        }
      ],
      "name": "MintToken",
      "type": "event"
    },
    {
      "anonymous": false,
      "inputs": [
        {
          "indexed": true,
          "internalType": "address",
          "name": "previousOwner",
          "type": "address"
        },
        {
          "indexed": true,
          "internalType": "address",
          "name": "newOwner",
          "type": "address"
        }
      ],
      "name": "OwnershipTransferred",
      "type": "event"
    },
    {
      "anonymous": false,
      "inputs": [
        {
          "indexed": false,
          "internalType": "address",
          "name": "account",
          "type": "address"
        }
      ],
      "name": "Paused",
      "type": "event"
    },
    {
      "anonymous": false,
      "inputs": [
        {
          "indexed": true,
          "internalType": "address",
          "name": "from",
          "type": "address"
        },
        {
          "indexed": true,
          "internalType": "address",
          "name": "to",
          "type": "address"
        },
        {
          "indexed": true,
          "internalType": "uint256",
          "name": "tokenId",
          "type": "uint256"
        }
      ],
      "name": "Transfer",
      "type": "event"
    },
    {
      "anonymous": false,
      "inputs": [
        {
          "indexed": false,
          "internalType": "uint256",
          "name": "tokenId",
          "type": "uint256"
        }
      ],
      "name": "Unlocked",
      "type": "event"
    },
    {
      "anonymous": false,
      "inputs": [
        {
          "indexed": false,
          "internalType": "address",
          "name": "account",
          "type": "address"
        }
      ],
      "name": "Unpaused",
      "type": "event"
    },
    {
      "inputs": [
        {
          "internalType": "address",
          "name": "to",
          "type": "address"
        },
        {
          "internalType": "uint256",
          "name": "tokenId",
          "type": "uint256"
        }
      ],
      "name": "approve",
      "outputs": [],
      "stateMutability": "nonpayable",
      "type": "function"
    },
    {
      "inputs": [
        {
          "internalType": "address",
          "name": "owner",
          "type": "address"
        }
      ],
      "name": "balanceOf",
      "outputs": [
        {
          "internalType": "uint256",
          "name": "",
          "type": "uint256"
        }
      ],
      "stateMutability": "view",
      "type": "function",
      "constant": true
    },
    {
      "inputs": [
        {
          "internalType": "uint256",
          "name": "tokenId",
          "type": "uint256"
        }
      ],
      "name": "getApproved",
      "outputs": [
        {
          "internalType": "address",
          "name": "",
          "type": "address"
        }
      ],
      "stateMutability": "view",
      "type": "function",
      "constant": true
    },
    {
      "inputs": [
        {
          "internalType": "address",
          "name": "owner",
          "type": "address"
        },
        {
          "internalType": "address",
          "name": "operator",
          "type": "address"
        }
      ],
      "name": "isApprovedForAll",
      "outputs": [
        {
          "internalType": "bool",
          "name": "",
          "type": "bool"
        }
      ],
      "stateMutability": "view",
      "type": "function",
      "constant": true
    },
    {
      "inputs": [],
      "name": "name",
      "outputs": [
        {
          "internalType": "string",
          "name": "",
          "type": "string"
        }
      ],
      "stateMutability": "view",
      "type": "function",
      "constant": true
    },
    {
      "inputs": [],
      "name": "owner",
      "outputs": [
        {
          "internalType": "address",
          "name": "",
          "type": "address"
        }
      ],
      "stateMutability": "view",
      "type": "function",
      "constant": true
    },
    {
      "inputs": [
        {
          "internalType": "uint256",
          "name": "tokenId",
          "type": "uint256"
        }
      ],
      "name": "ownerOf",
      "outputs": [
        {
          "internalType": "address",
          "name": "",
          "type": "address"
        }
      ],
      "stateMutability": "view",
      "type": "function",
      "constant": true
    },
    {
      "inputs": [],
      "name": "pause",
      "outputs": [],
      "stateMutability": "nonpayable",
      "type": "function"
    },
    {
      "inputs": [],
      "name": "paused",
      "outputs": [
        {
          "internalType": "bool",
          "name": "",
          "type": "bool"
        }
      ],
      "stateMutability": "view",
      "type": "function",
      "constant": true
    },
    {
      "inputs": [],
      "name": "renounceOwnership",
      "outputs": [],
      "stateMutability": "nonpayable",
      "type": "function"
    },
    {
      "inputs": [
        {
          "internalType": "address",
          "name": "operator",
          "type": "address"
        },
        {
          "internalType": "bool",
          "name": "approved",
          "type": "bool"
        }
      ],
      "name": "setApprovalForAll",
      "outputs": [],
      "stateMutability": "nonpayable",
      "type": "function"
    },
    {
      "inputs": [
        {
          "internalType": "bytes4",
          "name": "interfaceId",
          "type": "bytes4"
        }
      ],
      "name": "supportsInterface",
      "outputs": [
        {
          "internalType": "bool",
          "name": "",
          "type": "bool"
        }
      ],
      "stateMutability": "view",
      "type": "function",
      "constant": true
    },
    {
      "inputs": [],
      "name": "symbol",
      "outputs": [
        {
          "internalType": "string",
          "name": "",
          "type": "string"
        }
      ],
      "stateMutability": "view",
      "type": "function",
      "constant": true
    },
    {
      "inputs": [
        {
          "internalType": "uint256",
          "name": "tokenId",
          "type": "uint256"
        }
      ],
      "name": "tokenURI",
      "outputs": [
        {
          "internalType": "string",
          "name": "",
          "type": "string"
        }
      ],
      "stateMutability": "view",
      "type": "function",
      "constant": true
    },
    {
      "inputs": [],
      "name": "unpause",
      "outputs": [],
      "stateMutability": "nonpayable",
      "type": "function"
    },
    {
      "inputs": [
        {
          "internalType": "address",
          "name": "newOwner",
          "type": "address"
        }
      ],
      "name": "transferOwnership",
      "outputs": [],
      "stateMutability": "nonpayable",
      "type": "function"
    },
    {
      "inputs": [
        {
          "internalType": "string",
          "name": "collectionName",
          "type": "string"
        },
        {
          "internalType": "string",
          "name": "owner",
          "type": "string"
        },
        {
          "internalType": "string",
          "name": "metaURI",
          "type": "string"
        }
      ],
      "name": "createCollection",
      "outputs": [],
      "stateMutability": "nonpayable",
      "type": "function"
    },
    {
      "inputs": [
        {
          "internalType": "address",
          "name": "recipient",
          "type": "address"
        },
        {
          "internalType": "string",
          "name": "collectionName",
          "type": "string"
        }
      ],
      "name": "mintToken",
      "outputs": [
        {
          "internalType": "uint256",
          "name": "",
          "type": "uint256"
        }
      ],
      "stateMutability": "nonpayable",
      "type": "function"
    },
    {
      "inputs": [
        {
          "internalType": "uint256",
          "name": "tokenId",
          "type": "uint256"
        }
      ],
      "name": "unlock",
      "outputs": [],
      "stateMutability": "nonpayable",
      "type": "function"
    },
    {
      "inputs": [
        {
          "internalType": "uint256",
          "name": "tokenId",
          "type": "uint256"
        }
      ],
      "name": "lock",
      "outputs": [],
      "stateMutability": "nonpayable",
      "type": "function"
    },
    {
      "inputs": [
        {
          "internalType": "uint256",
          "name": "tokenId",
          "type": "uint256"
        }
      ],
      "name": "tokenCollection",
      "outputs": [
        {
          "internalType": "string",
          "name": "",
          "type": "string"
        }
      ],
      "stateMutability": "view",
      "type": "function",
      "constant": true
    },
    {
      "inputs": [
        {
          "internalType": "string",
          "name": "collectionName",
          "type": "string"
        }
      ],
      "name": "collectionMinted",
      "outputs": [
        {
          "internalType": "uint256",
          "name": "",
          "type": "uint256"
        }
      ],
      "stateMutability": "view",
      "type": "function",
      "constant": true
    },
    {
      "inputs": [
        {
          "internalType": "string",
          "name": "collectionName",
          "type": "string"
        }
      ],
      "name": "collectionOwner",
      "outputs": [
        {
          "internalType": "string",
          "name": "",
          "type": "string"
        }
      ],
      "stateMutability": "view",
      "type": "function",
      "constant": true
    },
    {
      "inputs": [
        {
          "internalType": "uint256",
          "name": "tokenId",
          "type": "uint256"
        }
      ],
      "name": "tokenCreatedAt",
      "outputs": [
        {
          "internalType": "uint256",
          "name": "",
          "type": "uint256"
        }
      ],
      "stateMutability": "view",
      "type": "function",
      "constant": true
    },
    {
      "inputs": [
        {
          "internalType": "uint256",
          "name": "tokenId",
          "type": "uint256"
        }
      ],
      "name": "locked",
      "outputs": [
        {
          "internalType": "bool",
          "name": "",
          "type": "bool"
        }
      ],
      "stateMutability": "view",
      "type": "function",
      "constant": true
    },
    {
      "inputs": [
        {
          "internalType": "address",
          "name": "from",
          "type": "address"
        },
        {
          "internalType": "address",
          "name": "to",
          "type": "address"
        },
        {
          "internalType": "uint256",
          "name": "tokenId",
          "type": "uint256"
        }
      ],
      "name": "safeTransferFrom",
      "outputs": [],
      "stateMutability": "nonpayable",
      "type": "function"
    },
    {
      "inputs": [
        {
          "internalType": "address",
          "name": "from",
          "type": "address"
        },
        {
          "internalType": "address",
          "name": "to",
          "type": "address"
        },
        {
          "internalType": "uint256",
          "name": "tokenId",
          "type": "uint256"
        },
        {
          "internalType": "bytes",
          "name": "data",
          "type": "bytes"
        }
      ],
      "name": "safeTransferFrom",
      "outputs": [],
      "stateMutability": "nonpayable",
      "type": "function"
    },
    {
      "inputs": [
        {
          "internalType": "address",
          "name": "from",
          "type": "address"
        },
        {
          "internalType": "address",
          "name": "to",
          "type": "address"
        },
        {
          "internalType": "uint256",
          "name": "tokenId",
          "type": "uint256"
        }
      ],
      "name": "transferFrom",
      "outputs": [],
      "stateMutability": "nonpayable",
      "type": "function"
    }
  ],
  "bytecode": "0x60806040526000600960006101000a81548160ff0219169083151502179055503480156200002c57600080fd5b506040518060400160405280600481526020017f506f6170000000000000000000000000000000000000000000000000000000008152506040518060400160405280600381526020017f44594500000000000000000000000000000000000000000000000000000000008152508160009081620000aa91906200042d565b508060019081620000bc91906200042d565b505050620000df620000d3620000e560201b60201c565b620000ed60201b60201c565b62000514565b600033905090565b6000600760009054906101000a900473ffffffffffffffffffffffffffffffffffffffff16905081600760006101000a81548173ffffffffffffffffffffffffffffffffffffffff021916908373ffffffffffffffffffffffffffffffffffffffff1602179055508173ffffffffffffffffffffffffffffffffffffffff168173ffffffffffffffffffffffffffffffffffffffff167f8be0079c531659141344cd1fd0a4f28419497f9722a3daafe3b4186f6b6457e060405160405180910390a35050565b600081519050919050565b7f4e487b7100000000000000000000000000000000000000000000000000000000600052604160045260246000fd5b7f4e487b7100000000000000000000000000000000000000000000000000000000600052602260045260246000fd5b600060028204905060018216806200023557607f821691505b6020821081036200024b576200024a620001ed565b5b50919050565b60008190508160005260206000209050919050565b60006020601f8301049050919050565b600082821b905092915050565b600060088302620002b57fffffffffffffffffffffffffffffffffffffffffffffffffffffffffffffffff8262000276565b620002c1868362000276565b95508019841693508086168417925050509392505050565b6000819050919050565b6000819050919050565b60006200030e620003086200030284620002d9565b620002e3565b620002d9565b9050919050565b6000819050919050565b6200032a83620002ed565b62000342620003398262000315565b84845462000283565b825550505050565b600090565b620003596200034a565b620003668184846200031f565b505050565b5b818110156200038e57620003826000826200034f565b6001810190506200036c565b5050565b601f821115620003dd57620003a78162000251565b620003b28462000266565b81016020851015620003c2578190505b620003da620003d18562000266565b8301826200036b565b50505b505050565b600082821c905092915050565b60006200040260001984600802620003e2565b1980831691505092915050565b60006200041d8383620003ef565b9150826002028217905092915050565b6200043882620001b3565b67ffffffffffffffff811115620004545762000453620001be565b5b6200046082546200021c565b6200046d82828562000392565b600060209050601f831160018114620004a5576000841562000490578287015190505b6200049c85826200040f565b8655506200050c565b601f198416620004b58662000251565b60005b82811015620004df57848901518255600182019150602085019450602081019050620004b8565b86831015620004ff5784890151620004fb601f891682620003ef565b8355505b6001600288020188555050505b505050505050565b61440480620005246000396000f3fe608060405234801561001057600080fd5b50600436106101c45760003560e01c8063715018a6116100f9578063b45a3c0e11610097578063dd46706411610071578063dd46706414610517578063e985e9c514610533578063ece86c2114610563578063f2fde38b1461057f576101c4565b8063b45a3c0e1461049b578063b88d4fde146104cb578063c87b56dd146104e7576101c4565b806395d89b41116100d357806395d89b41146104015780639ace23ed1461041f5780639b7bcf971461044f578063a22cb4651461047f576101c4565b8063715018a6146103cf5780638456cb59146103d95780638da5cb5b146103e3576101c4565b80633d02d0c9116101665780635c975abb116101405780635c975abb146103355780636198e339146103535780636352211e1461036f57806370a082311461039f576101c4565b80633d02d0c9146102df5780633f4ba83a1461030f57806342842e0e14610319576101c4565b8063095ea7b3116101a2578063095ea7b314610247578063202e1d161461026357806323b872dd146102935780632dd883e8146102af576101c4565b806301ffc9a7146101c957806306fdde03146101f9578063081812fc14610217575b600080fd5b6101e360048036038101906101de9190612b57565b61059b565b6040516101f09190612b9f565b60405180910390f35b61020161067d565b60405161020e9190612c4a565b60405180910390f35b610231600480360381019061022c9190612ca2565b61070f565b60405161023e9190612d10565b60405180910390f35b610261600480360381019061025c9190612d57565b610794565b005b61027d60048036038101906102789190612ecc565b6108ab565b60405161028a9190612f24565b60405180910390f35b6102ad60048036038101906102a89190612f3f565b61091d565b005b6102c960048036038101906102c49190612ca2565b61095c565b6040516102d69190612c4a565b60405180910390f35b6102f960048036038101906102f49190612f92565b610a4b565b6040516103069190612f24565b60405180910390f35b610317610cd5565b005b610333600480360381019061032e9190612f3f565b610dbe565b005b61033d610dfd565b60405161034a9190612b9f565b60405180910390f35b61036d60048036038101906103689190612ca2565b610e14565b005b61038960048036038101906103849190612ca2565b610f00565b6040516103969190612d10565b60405180910390f35b6103b960048036038101906103b49190612fee565b610fb1565b6040516103c69190612f24565b60405180910390f35b6103d7611068565b005b6103e16110f0565b005b6103eb6111da565b6040516103f89190612d10565b60405180910390f35b610409611204565b6040516104169190612c4a565b60405180910390f35b61043960048036038101906104349190612ca2565b611296565b6040516104469190612f24565b60405180910390f35b61046960048036038101906104649190612ecc565b6112fd565b6040516104769190612c4a565b60405180910390f35b61049960048036038101906104949190613047565b6113f7565b005b6104b560048036038101906104b09190612ca2565b61140d565b6040516104c29190612b9f565b60405180910390f35b6104e560048036038101906104e09190613128565b61141f565b005b61050160048036038101906104fc9190612ca2565b611460565b60405161050e9190612c4a565b60405180910390f35b610531600480360381019061052c9190612ca2565b6115b1565b005b61054d600480360381019061054891906131ab565b61169d565b60405161055a9190612b9f565b60405180910390f35b61057d600480360381019061057891906131eb565b611731565b005b61059960048036038101906105949190612fee565b6118ca565b005b60007f80ac58cd000000000000000000000000000000000000000000000000000000007bffffffffffffffffffffffffffffffffffffffffffffffffffffffff1916827bffffffffffffffffffffffffffffffffffffffffffffffffffffffff1916148061066657507f5b5e139f000000000000000000000000000000000000000000000000000000007bffffffffffffffffffffffffffffffffffffffffffffffffffffffff1916827bffffffffffffffffffffffffffffffffffffffffffffffffffffffff1916145b806106765750610675826119c1565b5b9050919050565b60606000805461068c906132c1565b80601f01602080910402602001604051908101604052809291908181526020018280546106b8906132c1565b80156107055780601f106106da57610100808354040283529160200191610705565b820191906000526020600020905b8154815290600101906020018083116106e857829003601f168201915b5050505050905090565b600061071a82611a2b565b610759576040517f08c379a000000000000000000000000000000000000000000000000000000000815260040161075090613364565b60405180910390fd5b6004600083815260200190815260200160002060009054906101000a900473ffffffffffffffffffffffffffffffffffffffff169050919050565b600061079f82610f00565b90508073ffffffffffffffffffffffffffffffffffffffff168373ffffffffffffffffffffffffffffffffffffffff160361080f576040517f08c379a0000000000000000000000000000000000000000000000000000000008152600401610806906133f6565b60405180910390fd5b8073ffffffffffffffffffffffffffffffffffffffff1661082e611a97565b73ffffffffffffffffffffffffffffffffffffffff16148061085d575061085c81610857611a97565b61169d565b5b61089c576040517f08c379a000000000000000000000000000000000000000000000000000000000815260040161089390613488565b60405180910390fd5b6108a68383611a9f565b505050565b6000816108b781611b58565b6108f6576040517f08c379a00000000000000000000000000000000000000000000000000000000081526004016108ed906134f4565b60405180910390fd5b600e836040516109069190613550565b908152602001604051809103902054915050919050565b806109278161140d565b1561093157600080fd5b600960009054906101000a900460ff161561094b57600080fd5b610956848484611c21565b50505050565b60608161096881611a2b565b6109a7576040517f08c379a000000000000000000000000000000000000000000000000000000000815260040161099e906135b3565b60405180910390fd5b600b600084815260200190815260200160002080546109c5906132c1565b80601f01602080910402602001604051908101604052809291908181526020018280546109f1906132c1565b8015610a3e5780601f10610a1357610100808354040283529160200191610a3e565b820191906000526020600020905b815481529060010190602001808311610a2157829003601f168201915b5050505050915050919050565b6000610a55611a97565b73ffffffffffffffffffffffffffffffffffffffff16610a736111da565b73ffffffffffffffffffffffffffffffffffffffff1614610ac9576040517f08c379a0000000000000000000000000000000000000000000000000000000008152600401610ac09061361f565b60405180910390fd5b600960009054906101000a900460ff1615610ae357600080fd5b81610aed81611b58565b610b2c576040517f08c379a0000000000000000000000000000000000000000000000000000000008152600401610b23906134f4565b60405180910390fd5b610b36600a611c81565b6000610b42600a611c97565b905083600b60008381526020019081526020016000209081610b6491906137eb565b506001600e85604051610b779190613550565b90815260200160405180910390206000828254610b9491906138ec565b925050819055506000600f85604051610bad9190613550565b90815260200160405180910390208054610bc6906132c1565b80601f0160208091040260200160405190810160405280929190818152602001828054610bf2906132c1565b8015610c3f5780601f10610c1457610100808354040283529160200191610c3f565b820191906000526020600020905b815481529060010190602001808311610c2257829003601f168201915b50505050509050610c508683611ca5565b610c5a8282611e7e565b610c6382611eeb565b42600c6000848152602001908152602001600020819055507f62c7d0ab3d4a5ce83ab60c8c32abd5fd0bdb5e26e780ee6b932699755639afab8282600c600086815260200190815260200160002054604051610cc193929190613920565b60405180910390a181935050505092915050565b610cdd611a97565b73ffffffffffffffffffffffffffffffffffffffff16610cfb6111da565b73ffffffffffffffffffffffffffffffffffffffff1614610d51576040517f08c379a0000000000000000000000000000000000000000000000000000000008152600401610d489061361f565b60405180910390fd5b600960009054906101000a900460ff16610d6a57600080fd5b6000600960006101000a81548160ff0219169083151502179055507f5db9ee0a495bf2e6ff9c91a7834c1ba4fdd244a5e8aa4e537bd38aeae4b073aa33604051610db49190612d10565b60405180910390a1565b80610dc88161140d565b15610dd257600080fd5b600960009054906101000a900460ff1615610dec57600080fd5b610df7848484611f51565b50505050565b6000600960009054906101000a900460ff16905090565b610e1c611a97565b73ffffffffffffffffffffffffffffffffffffffff16610e3a6111da565b73ffffffffffffffffffffffffffffffffffffffff1614610e90576040517f08c379a0000000000000000000000000000000000000000000000000000000008152600401610e879061361f565b60405180910390fd5b80610e9a81611a2b565b610ed9576040517f08c379a0000000000000000000000000000000000000000000000000000000008152600401610ed0906135b3565b60405180910390fd5b600960009054906101000a900460ff1615610ef357600080fd5b610efc82611f71565b5050565b6000806002600084815260200190815260200160002060009054906101000a900473ffffffffffffffffffffffffffffffffffffffff169050600073ffffffffffffffffffffffffffffffffffffffff168173ffffffffffffffffffffffffffffffffffffffff1603610fa8576040517f08c379a0000000000000000000000000000000000000000000000000000000008152600401610f9f906139d0565b60405180910390fd5b80915050919050565b60008073ffffffffffffffffffffffffffffffffffffffff168273ffffffffffffffffffffffffffffffffffffffff1603611021576040517f08c379a000000000000000000000000000000000000000000000000000000000815260040161101890613a62565b60405180910390fd5b600360008373ffffffffffffffffffffffffffffffffffffffff1673ffffffffffffffffffffffffffffffffffffffff168152602001908152602001600020549050919050565b611070611a97565b73ffffffffffffffffffffffffffffffffffffffff1661108e6111da565b73ffffffffffffffffffffffffffffffffffffffff16146110e4576040517f08c379a00000000000000000000000000000000000000000000000000000000081526004016110db9061361f565b60405180910390fd5b6110ee6000611fd7565b565b6110f8611a97565b73ffffffffffffffffffffffffffffffffffffffff166111166111da565b73ffffffffffffffffffffffffffffffffffffffff161461116c576040517f08c379a00000000000000000000000000000000000000000000000000000000081526004016111639061361f565b60405180910390fd5b600960009054906101000a900460ff161561118657600080fd5b6001600960006101000a81548160ff0219169083151502179055507f62e78cea01bee320cd4e420270b5ea74000d11b0c9f74754ebdbfc544b05a258336040516111d09190612d10565b60405180910390a1565b6000600760009054906101000a900473ffffffffffffffffffffffffffffffffffffffff16905090565b606060018054611213906132c1565b80601f016020809104026020016040519081016040528092919081815260200182805461123f906132c1565b801561128c5780601f106112615761010080835404028352916020019161128c565b820191906000526020600020905b81548152906001019060200180831161126f57829003601f168201915b5050505050905090565b6000816112a281611a2b565b6112e1576040517f08c379a00000000000000000000000000000000000000000000000000000000081526004016112d8906135b3565b60405180910390fd5b600c600084815260200190815260200160002054915050919050565b60608161130981611b58565b611348576040517f08c379a000000000000000000000000000000000000000000000000000000000815260040161133f906134f4565b60405180910390fd5b600d836040516113589190613550565b90815260200160405180910390208054611371906132c1565b80601f016020809104026020016040519081016040528092919081815260200182805461139d906132c1565b80156113ea5780601f106113bf576101008083540402835291602001916113ea565b820191906000526020600020905b8154815290600101906020018083116113cd57829003601f168201915b5050505050915050919050565b611409611402611a97565b838361209d565b5050565b600061141882612209565b9050919050565b816114298161140d565b1561143357600080fd5b600960009054906101000a900460ff161561144d57600080fd5b61145985858585612233565b5050505050565b606061146b82611a2b565b6114aa576040517f08c379a00000000000000000000000000000000000000000000000000000000081526004016114a190613af4565b60405180910390fd5b60006006600084815260200190815260200160002080546114ca906132c1565b80601f01602080910402602001604051908101604052809291908181526020018280546114f6906132c1565b80156115435780601f1061151857610100808354040283529160200191611543565b820191906000526020600020905b81548152906001019060200180831161152657829003601f168201915b505050505090506000611554612295565b905060008151036115695781925050506115ac565b60008251111561159e578082604051602001611586929190613b14565b604051602081830303815290604052925050506115ac565b6115a7846122ac565b925050505b919050565b6115b9611a97565b73ffffffffffffffffffffffffffffffffffffffff166115d76111da565b73ffffffffffffffffffffffffffffffffffffffff161461162d576040517f08c379a00000000000000000000000000000000000000000000000000000000081526004016116249061361f565b60405180910390fd5b8061163781611a2b565b611676576040517f08c379a000000000000000000000000000000000000000000000000000000000815260040161166d906135b3565b60405180910390fd5b600960009054906101000a900460ff161561169057600080fd5b61169982611eeb565b5050565b6000600560008473ffffffffffffffffffffffffffffffffffffffff1673ffffffffffffffffffffffffffffffffffffffff16815260200190815260200160002060008373ffffffffffffffffffffffffffffffffffffffff1673ffffffffffffffffffffffffffffffffffffffff16815260200190815260200160002060009054906101000a900460ff16905092915050565b611739611a97565b73ffffffffffffffffffffffffffffffffffffffff166117576111da565b73ffffffffffffffffffffffffffffffffffffffff16146117ad576040517f08c379a00000000000000000000000000000000000000000000000000000000081526004016117a49061361f565b60405180910390fd5b600960009054906101000a900460ff16156117c757600080fd5b6117d083611b58565b15611810576040517f08c379a000000000000000000000000000000000000000000000000000000000815260040161180790613b84565b60405180910390fd5b81600d846040516118219190613550565b9081526020016040518091039020908161183b91906137eb565b506000600e8460405161184e9190613550565b90815260200160405180910390208190555080600f846040516118719190613550565b9081526020016040518091039020908161188b91906137eb565b507f22064cb5620abd120c2e3ce072e223da3c503d87ebe06c3310915de76fc6453383826040516118bd929190613ba4565b60405180910390a1505050565b6118d2611a97565b73ffffffffffffffffffffffffffffffffffffffff166118f06111da565b73ffffffffffffffffffffffffffffffffffffffff1614611946576040517f08c379a000000000000000000000000000000000000000000000000000000000815260040161193d9061361f565b60405180910390fd5b600073ffffffffffffffffffffffffffffffffffffffff168173ffffffffffffffffffffffffffffffffffffffff16036119b5576040517f08c379a00000000000000000000000000000000000000000000000000000000081526004016119ac90613c4d565b60405180910390fd5b6119be81611fd7565b50565b60007f01ffc9a7000000000000000000000000000000000000000000000000000000007bffffffffffffffffffffffffffffffffffffffffffffffffffffffff1916827bffffffffffffffffffffffffffffffffffffffffffffffffffffffff1916149050919050565b60008073ffffffffffffffffffffffffffffffffffffffff166002600084815260200190815260200160002060009054906101000a900473ffffffffffffffffffffffffffffffffffffffff1673ffffffffffffffffffffffffffffffffffffffff1614159050919050565b600033905090565b816004600083815260200190815260200160002060006101000a81548173ffffffffffffffffffffffffffffffffffffffff021916908373ffffffffffffffffffffffffffffffffffffffff160217905550808273ffffffffffffffffffffffffffffffffffffffff16611b1283610f00565b73ffffffffffffffffffffffffffffffffffffffff167f8c5be1e5ebec7d5bd14f71427d1e84f3dd0314c0f7b2291e5b200ac8c7c3b92560405160405180910390a45050565b6000611c19600d83604051611b6d9190613550565b90815260200160405180910390208054611b86906132c1565b80601f0160208091040260200160405190810160405280929190818152602001828054611bb2906132c1565b8015611bff5780601f10611bd457610100808354040283529160200191611bff565b820191906000526020600020905b815481529060010190602001808311611be257829003601f168201915b505050505060405180602001604052806000815250612353565b159050919050565b611c32611c2c611a97565b82612437565b611c71576040517f08c379a0000000000000000000000000000000000000000000000000000000008152600401611c6890613cdf565b60405180910390fd5b611c7c838383612515565b505050565b6001816000016000828254019250508190555050565b600081600001549050919050565b600073ffffffffffffffffffffffffffffffffffffffff168273ffffffffffffffffffffffffffffffffffffffff1603611d14576040517f08c379a0000000000000000000000000000000000000000000000000000000008152600401611d0b90613d4b565b60405180910390fd5b611d1d81611a2b565b15611d5d576040517f08c379a0000000000000000000000000000000000000000000000000000000008152600401611d5490613db7565b60405180910390fd5b611d696000838361277b565b6001600360008473ffffffffffffffffffffffffffffffffffffffff1673ffffffffffffffffffffffffffffffffffffffff1681526020019081526020016000206000828254611db991906138ec565b92505081905550816002600083815260200190815260200160002060006101000a81548173ffffffffffffffffffffffffffffffffffffffff021916908373ffffffffffffffffffffffffffffffffffffffff160217905550808273ffffffffffffffffffffffffffffffffffffffff16600073ffffffffffffffffffffffffffffffffffffffff167fddf252ad1be2c89b69c2b068fc378daa952ba7f163c4a11628f55a4df523b3ef60405160405180910390a4611e7a60008383612780565b5050565b611e8782611a2b565b611ec6576040517f08c379a0000000000000000000000000000000000000000000000000000000008152600401611ebd90613e49565b60405180910390fd5b80600660008481526020019081526020016000209081611ee691906137eb565b505050565b60016008600083815260200190815260200160002060006101000a81548160ff0219169083151502179055507f032bc66be43dbccb7487781d168eb7bda224628a3b2c3388bdf69b532a3a161181604051611f469190612f24565b60405180910390a150565b611f6c8383836040518060200160405280600081525061141f565b505050565b60006008600083815260200190815260200160002060006101000a81548160ff0219169083151502179055507ff27b6ce5b2f5e68ddb2fd95a8a909d4ecf1daaac270935fff052feacb24f184281604051611fcc9190612f24565b60405180910390a150565b6000600760009054906101000a900473ffffffffffffffffffffffffffffffffffffffff16905081600760006101000a81548173ffffffffffffffffffffffffffffffffffffffff021916908373ffffffffffffffffffffffffffffffffffffffff1602179055508173ffffffffffffffffffffffffffffffffffffffff168173ffffffffffffffffffffffffffffffffffffffff167f8be0079c531659141344cd1fd0a4f28419497f9722a3daafe3b4186f6b6457e060405160405180910390a35050565b8173ffffffffffffffffffffffffffffffffffffffff168373ffffffffffffffffffffffffffffffffffffffff160361210b576040517f08c379a000000000000000000000000000000000000000000000000000000000815260040161210290613eb5565b60405180910390fd5b80600560008573ffffffffffffffffffffffffffffffffffffffff1673ffffffffffffffffffffffffffffffffffffffff16815260200190815260200160002060008473ffffffffffffffffffffffffffffffffffffffff1673ffffffffffffffffffffffffffffffffffffffff16815260200190815260200160002060006101000a81548160ff0219169083151502179055508173ffffffffffffffffffffffffffffffffffffffff168373ffffffffffffffffffffffffffffffffffffffff167f17307eab39ab6107e8899845ad3d59bd9653f200f220920489ca2b5937696c31836040516121fc9190612b9f565b60405180910390a3505050565b60006008600083815260200190815260200160002060009054906101000a900460ff169050919050565b61224461223e611a97565b83612437565b612283576040517f08c379a000000000000000000000000000000000000000000000000000000000815260040161227a90613cdf565b60405180910390fd5b61228f84848484612785565b50505050565b606060405180602001604052806000815250905090565b60606122b782611a2b565b6122f6576040517f08c379a00000000000000000000000000000000000000000000000000000000081526004016122ed90613f47565b60405180910390fd5b6000612300612295565b90506000815111612320576040518060200160405280600081525061234b565b8061232a846127e1565b60405160200161233b929190613b14565b6040516020818303038152906040525b915050919050565b6000808390506000839050600082519050815181146123785760009350505050612431565b60005b818110156124285782818151811061239657612395613f67565b5b602001015160f81c60f81b7effffffffffffffffffffffffffffffffffffffffffffffffffffffffffffff19168482815181106123d6576123d5613f67565b5b602001015160f81c60f81b7effffffffffffffffffffffffffffffffffffffffffffffffffffffffffffff191614612415576000945050505050612431565b808061242090613f96565b91505061237b565b50600193505050505b92915050565b600061244282611a2b565b612481576040517f08c379a000000000000000000000000000000000000000000000000000000000815260040161247890614050565b60405180910390fd5b600061248c83610f00565b90508073ffffffffffffffffffffffffffffffffffffffff168473ffffffffffffffffffffffffffffffffffffffff1614806124ce57506124cd818561169d565b5b8061250c57508373ffffffffffffffffffffffffffffffffffffffff166124f48461070f565b73ffffffffffffffffffffffffffffffffffffffff16145b91505092915050565b8273ffffffffffffffffffffffffffffffffffffffff1661253582610f00565b73ffffffffffffffffffffffffffffffffffffffff161461258b576040517f08c379a0000000000000000000000000000000000000000000000000000000008152600401612582906140e2565b60405180910390fd5b600073ffffffffffffffffffffffffffffffffffffffff168273ffffffffffffffffffffffffffffffffffffffff16036125fa576040517f08c379a00000000000000000000000000000000000000000000000000000000081526004016125f190614174565b60405180910390fd5b61260583838361277b565b612610600082611a9f565b6001600360008573ffffffffffffffffffffffffffffffffffffffff1673ffffffffffffffffffffffffffffffffffffffff16815260200190815260200160002060008282546126609190614194565b925050819055506001600360008473ffffffffffffffffffffffffffffffffffffffff1673ffffffffffffffffffffffffffffffffffffffff16815260200190815260200160002060008282546126b791906138ec565b92505081905550816002600083815260200190815260200160002060006101000a81548173ffffffffffffffffffffffffffffffffffffffff021916908373ffffffffffffffffffffffffffffffffffffffff160217905550808273ffffffffffffffffffffffffffffffffffffffff168473ffffffffffffffffffffffffffffffffffffffff167fddf252ad1be2c89b69c2b068fc378daa952ba7f163c4a11628f55a4df523b3ef60405160405180910390a4612776838383612780565b505050565b505050565b505050565b612790848484612515565b61279c84848484612941565b6127db576040517f08c379a00000000000000000000000000000000000000000000000000000000081526004016127d29061423a565b60405180910390fd5b50505050565b606060008203612828576040518060400160405280600181526020017f3000000000000000000000000000000000000000000000000000000000000000815250905061293c565b600082905060005b6000821461285a57808061284390613f96565b915050600a826128539190614289565b9150612830565b60008167ffffffffffffffff81111561287657612875612da1565b5b6040519080825280601f01601f1916602001820160405280156128a85781602001600182028036833780820191505090505b5090505b60008514612935576001826128c19190614194565b9150600a856128d091906142ba565b60306128dc91906138ec565b60f81b8183815181106128f2576128f1613f67565b5b60200101907effffffffffffffffffffffffffffffffffffffffffffffffffffffffffffff1916908160001a905350600a8561292e9190614289565b94506128ac565b8093505050505b919050565b60006129628473ffffffffffffffffffffffffffffffffffffffff16612ac8565b15612abb578373ffffffffffffffffffffffffffffffffffffffff1663150b7a0261298b611a97565b8786866040518563ffffffff1660e01b81526004016129ad9493929190614340565b6020604051808303816000875af19250505080156129e957506040513d601f19601f820116820180604052508101906129e691906143a1565b60015b612a6b573d8060008114612a19576040519150601f19603f3d011682016040523d82523d6000602084013e612a1e565b606091505b506000815103612a63576040517f08c379a0000000000000000000000000000000000000000000000000000000008152600401612a5a9061423a565b60405180910390fd5b805181602001fd5b63150b7a0260e01b7bffffffffffffffffffffffffffffffffffffffffffffffffffffffff1916817bffffffffffffffffffffffffffffffffffffffffffffffffffffffff191614915050612ac0565b600190505b949350505050565b6000808273ffffffffffffffffffffffffffffffffffffffff163b119050919050565b6000604051905090565b600080fd5b600080fd5b60007fffffffff0000000000000000000000000000000000000000000000000000000082169050919050565b612b3481612aff565b8114612b3f57600080fd5b50565b600081359050612b5181612b2b565b92915050565b600060208284031215612b6d57612b6c612af5565b5b6000612b7b84828501612b42565b91505092915050565b60008115159050919050565b612b9981612b84565b82525050565b6000602082019050612bb46000830184612b90565b92915050565b600081519050919050565b600082825260208201905092915050565b60005b83811015612bf4578082015181840152602081019050612bd9565b60008484015250505050565b6000601f19601f8301169050919050565b6000612c1c82612bba565b612c268185612bc5565b9350612c36818560208601612bd6565b612c3f81612c00565b840191505092915050565b60006020820190508181036000830152612c648184612c11565b905092915050565b6000819050919050565b612c7f81612c6c565b8114612c8a57600080fd5b50565b600081359050612c9c81612c76565b92915050565b600060208284031215612cb857612cb7612af5565b5b6000612cc684828501612c8d565b91505092915050565b600073ffffffffffffffffffffffffffffffffffffffff82169050919050565b6000612cfa82612ccf565b9050919050565b612d0a81612cef565b82525050565b6000602082019050612d256000830184612d01565b92915050565b612d3481612cef565b8114612d3f57600080fd5b50565b600081359050612d5181612d2b565b92915050565b60008060408385031215612d6e57612d6d612af5565b5b6000612d7c85828601612d42565b9250506020612d8d85828601612c8d565b9150509250929050565b600080fd5b600080fd5b7f4e487b7100000000000000000000000000000000000000000000000000000000600052604160045260246000fd5b612dd982612c00565b810181811067ffffffffffffffff82111715612df857612df7612da1565b5b80604052505050565b6000612e0b612aeb565b9050612e178282612dd0565b919050565b600067ffffffffffffffff821115612e3757612e36612da1565b5b612e4082612c00565b9050602081019050919050565b82818337600083830152505050565b6000612e6f612e6a84612e1c565b612e01565b905082815260208101848484011115612e8b57612e8a612d9c565b5b612e96848285612e4d565b509392505050565b600082601f830112612eb357612eb2612d97565b5b8135612ec3848260208601612e5c565b91505092915050565b600060208284031215612ee257612ee1612af5565b5b600082013567ffffffffffffffff811115612f0057612eff612afa565b5b612f0c84828501612e9e565b91505092915050565b612f1e81612c6c565b82525050565b6000602082019050612f396000830184612f15565b92915050565b600080600060608486031215612f5857612f57612af5565b5b6000612f6686828701612d42565b9350506020612f7786828701612d42565b9250506040612f8886828701612c8d565b9150509250925092565b60008060408385031215612fa957612fa8612af5565b5b6000612fb785828601612d42565b925050602083013567ffffffffffffffff811115612fd857612fd7612afa565b5b612fe485828601612e9e565b9150509250929050565b60006020828403121561300457613003612af5565b5b600061301284828501612d42565b91505092915050565b61302481612b84565b811461302f57600080fd5b50565b6000813590506130418161301b565b92915050565b6000806040838503121561305e5761305d612af5565b5b600061306c85828601612d42565b925050602061307d85828601613032565b9150509250929050565b600067ffffffffffffffff8211156130a2576130a1612da1565b5b6130ab82612c00565b9050602081019050919050565b60006130cb6130c684613087565b612e01565b9050828152602081018484840111156130e7576130e6612d9c565b5b6130f2848285612e4d565b509392505050565b600082601f83011261310f5761310e612d97565b5b813561311f8482602086016130b8565b91505092915050565b6000806000806080858703121561314257613141612af5565b5b600061315087828801612d42565b945050602061316187828801612d42565b935050604061317287828801612c8d565b925050606085013567ffffffffffffffff81111561319357613192612afa565b5b61319f878288016130fa565b91505092959194509250565b600080604083850312156131c2576131c1612af5565b5b60006131d085828601612d42565b92505060206131e185828601612d42565b9150509250929050565b60008060006060848603121561320457613203612af5565b5b600084013567ffffffffffffffff81111561322257613221612afa565b5b61322e86828701612e9e565b935050602084013567ffffffffffffffff81111561324f5761324e612afa565b5b61325b86828701612e9e565b925050604084013567ffffffffffffffff81111561327c5761327b612afa565b5b61328886828701612e9e565b9150509250925092565b7f4e487b7100000000000000000000000000000000000000000000000000000000600052602260045260246000fd5b600060028204905060018216806132d957607f821691505b6020821081036132ec576132eb613292565b5b50919050565b7f4552433732313a20617070726f76656420717565727920666f72206e6f6e657860008201527f697374656e7420746f6b656e0000000000000000000000000000000000000000602082015250565b600061334e602c83612bc5565b9150613359826132f2565b604082019050919050565b6000602082019050818103600083015261337d81613341565b9050919050565b7f4552433732313a20617070726f76616c20746f2063757272656e74206f776e6560008201527f7200000000000000000000000000000000000000000000000000000000000000602082015250565b60006133e0602183612bc5565b91506133eb82613384565b604082019050919050565b6000602082019050818103600083015261340f816133d3565b9050919050565b7f4552433732313a20617070726f76652063616c6c6572206973206e6f74206f7760008201527f6e6572206e6f7220617070726f76656420666f7220616c6c0000000000000000602082015250565b6000613472603883612bc5565b915061347d82613416565b604082019050919050565b600060208201905081810360008301526134a181613465565b9050919050565b7f506f61703a206e6f6e6578697374656e7420636f6c6c656374696f6e00000000600082015250565b60006134de601c83612bc5565b91506134e9826134a8565b602082019050919050565b6000602082019050818103600083015261350d816134d1565b9050919050565b600081905092915050565b600061352a82612bba565b6135348185613514565b9350613544818560208601612bd6565b80840191505092915050565b600061355c828461351f565b915081905092915050565b7f506f61703a206e6f6e6578697374656e7420746f6b656e000000000000000000600082015250565b600061359d601783612bc5565b91506135a882613567565b602082019050919050565b600060208201905081810360008301526135cc81613590565b9050919050565b7f4f776e61626c653a2063616c6c6572206973206e6f7420746865206f776e6572600082015250565b6000613609602083612bc5565b9150613614826135d3565b602082019050919050565b60006020820190508181036000830152613638816135fc565b9050919050565b60008190508160005260206000209050919050565b60006020601f8301049050919050565b600082821b905092915050565b6000600883026136a17fffffffffffffffffffffffffffffffffffffffffffffffffffffffffffffffff82613664565b6136ab8683613664565b95508019841693508086168417925050509392505050565b6000819050919050565b60006136e86136e36136de84612c6c565b6136c3565b612c6c565b9050919050565b6000819050919050565b613702836136cd565b61371661370e826136ef565b848454613671565b825550505050565b600090565b61372b61371e565b6137368184846136f9565b505050565b5b8181101561375a5761374f600082613723565b60018101905061373c565b5050565b601f82111561379f576137708161363f565b61377984613654565b81016020851015613788578190505b61379c61379485613654565b83018261373b565b50505b505050565b600082821c905092915050565b60006137c2600019846008026137a4565b1980831691505092915050565b60006137db83836137b1565b9150826002028217905092915050565b6137f482612bba565b67ffffffffffffffff81111561380d5761380c612da1565b5b61381782546132c1565b61382282828561375e565b600060209050601f8311600181146138555760008415613843578287015190505b61384d85826137cf565b8655506138b5565b601f1984166138638661363f565b60005b8281101561388b57848901518255600182019150602085019450602081019050613866565b868310156138a857848901516138a4601f8916826137b1565b8355505b6001600288020188555050505b505050505050565b7f4e487b7100000000000000000000000000000000000000000000000000000000600052601160045260246000fd5b60006138f782612c6c565b915061390283612c6c565b925082820190508082111561391a576139196138bd565b5b92915050565b60006060820190506139356000830186612f15565b81810360208301526139478185612c11565b90506139566040830184612f15565b949350505050565b7f4552433732313a206f776e657220717565727920666f72206e6f6e657869737460008201527f656e7420746f6b656e0000000000000000000000000000000000000000000000602082015250565b60006139ba602983612bc5565b91506139c58261395e565b604082019050919050565b600060208201905081810360008301526139e9816139ad565b9050919050565b7f4552433732313a2061646472657373207a65726f206973206e6f74206120766160008201527f6c6964206f776e65720000000000000000000000000000000000000000000000602082015250565b6000613a4c602983612bc5565b9150613a57826139f0565b604082019050919050565b60006020820190508181036000830152613a7b81613a3f565b9050919050565b7f45524337323155524953746f726167653a2055524920717565727920666f722060008201527f6e6f6e6578697374656e7420746f6b656e000000000000000000000000000000602082015250565b6000613ade603183612bc5565b9150613ae982613a82565b604082019050919050565b60006020820190508181036000830152613b0d81613ad1565b9050919050565b6000613b20828561351f565b9150613b2c828461351f565b91508190509392505050565b7f506f61703a20636f6c6c656374696f6e20616c72656164792063726561746564600082015250565b6000613b6e602083612bc5565b9150613b7982613b38565b602082019050919050565b60006020820190508181036000830152613b9d81613b61565b9050919050565b60006040820190508181036000830152613bbe8185612c11565b90508181036020830152613bd28184612c11565b90509392505050565b7f4f776e61626c653a206e6577206f776e657220697320746865207a65726f206160008201527f6464726573730000000000000000000000000000000000000000000000000000602082015250565b6000613c37602683612bc5565b9150613c4282613bdb565b604082019050919050565b60006020820190508181036000830152613c6681613c2a565b9050919050565b7f4552433732313a207472616e736665722063616c6c6572206973206e6f74206f60008201527f776e6572206e6f7220617070726f766564000000000000000000000000000000602082015250565b6000613cc9603183612bc5565b9150613cd482613c6d565b604082019050919050565b60006020820190508181036000830152613cf881613cbc565b9050919050565b7f4552433732313a206d696e7420746f20746865207a65726f2061646472657373600082015250565b6000613d35602083612bc5565b9150613d4082613cff565b602082019050919050565b60006020820190508181036000830152613d6481613d28565b9050919050565b7f4552433732313a20746f6b656e20616c7265616479206d696e74656400000000600082015250565b6000613da1601c83612bc5565b9150613dac82613d6b565b602082019050919050565b60006020820190508181036000830152613dd081613d94565b9050919050565b7f45524337323155524953746f726167653a2055524920736574206f66206e6f6e60008201527f6578697374656e7420746f6b656e000000000000000000000000000000000000602082015250565b6000613e33602e83612bc5565b9150613e3e82613dd7565b604082019050919050565b60006020820190508181036000830152613e6281613e26565b9050919050565b7f4552433732313a20617070726f766520746f2063616c6c657200000000000000600082015250565b6000613e9f601983612bc5565b9150613eaa82613e69565b602082019050919050565b60006020820190508181036000830152613ece81613e92565b9050919050565b7f4552433732314d657461646174613a2055524920717565727920666f72206e6f60008201527f6e6578697374656e7420746f6b656e0000000000000000000000000000000000602082015250565b6000613f31602f83612bc5565b9150613f3c82613ed5565b604082019050919050565b60006020820190508181036000830152613f6081613f24565b9050919050565b7f4e487b7100000000000000000000000000000000000000000000000000000000600052603260045260246000fd5b6000613fa182612c6c565b91507fffffffffffffffffffffffffffffffffffffffffffffffffffffffffffffffff8203613fd357613fd26138bd565b5b600182019050919050565b7f4552433732313a206f70657261746f7220717565727920666f72206e6f6e657860008201527f697374656e7420746f6b656e0000000000000000000000000000000000000000602082015250565b600061403a602c83612bc5565b915061404582613fde565b604082019050919050565b600060208201905081810360008301526140698161402d565b9050919050565b7f4552433732313a207472616e736665722066726f6d20696e636f72726563742060008201527f6f776e6572000000000000000000000000000000000000000000000000000000602082015250565b60006140cc602583612bc5565b91506140d782614070565b604082019050919050565b600060208201905081810360008301526140fb816140bf565b9050919050565b7f4552433732313a207472616e7366657220746f20746865207a65726f2061646460008201527f7265737300000000000000000000000000000000000000000000000000000000602082015250565b600061415e602483612bc5565b915061416982614102565b604082019050919050565b6000602082019050818103600083015261418d81614151565b9050919050565b600061419f82612c6c565b91506141aa83612c6c565b92508282039050818111156141c2576141c16138bd565b5b92915050565b7f4552433732313a207472616e7366657220746f206e6f6e20455243373231526560008201527f63656976657220696d706c656d656e7465720000000000000000000000000000602082015250565b6000614224603283612bc5565b915061422f826141c8565b604082019050919050565b6000602082019050818103600083015261425381614217565b9050919050565b7f4e487b7100000000000000000000000000000000000000000000000000000000600052601260045260246000fd5b600061429482612c6c565b915061429f83612c6c565b9250826142af576142ae61425a565b5b828204905092915050565b60006142c582612c6c565b91506142d083612c6c565b9250826142e0576142df61425a565b5b828206905092915050565b600081519050919050565b600082825260208201905092915050565b6000614312826142eb565b61431c81856142f6565b935061432c818560208601612bd6565b61433581612c00565b840191505092915050565b60006080820190506143556000830187612d01565b6143626020830186612d01565b61436f6040830185612f15565b81810360608301526143818184614307565b905095945050505050565b60008151905061439b81612b2b565b92915050565b6000602082840312156143b7576143b6612af5565b5b60006143c58482850161438c565b9150509291505056fea264697066735822122049f7457ac3f588a3b44ebd90aba22a386e2a2cf721f2f5478f163fc9e86c92e264736f6c63430008110033",
  "immutableReferences": {},
  "source": "//Contract based on [<https://docs.openzeppelin.com/contracts/3.x/erc721>](<https://docs.openzeppelin.com/contracts/3.x/erc721>)\n// SPDX-License-Identifier: MIT\npragma solidity ^0.8.0;\n\nimport \"../node_modules/@klaytn/contracts/token/ERC721/ERC721.sol\";\nimport \"../node_modules/@klaytn/contracts/utils/Counters.sol\";\nimport \"../node_modules/@klaytn/contracts/access/Ownable.sol\";\nimport \"../node_modules/@klaytn/contracts/token/ERC721/extensions/ERC721URIStorage.sol\";\nimport \"./Sbt.sol\";\nimport \"./Pausable.sol\";\n\ncontract Poap is ERC721URIStorage, Ownable, Sbt, Pausable {\n  //utils\n  using Counters for Counters.Counter;\n  Counters.Counter private _tokenIds;\n\n  constructor() ERC721(\"Poap\", \"DYE\") {}\n\n  //events\n  event CreateCollection(string collectionName, string metaURI);\n  event MintToken(uint256 tokenId, string tokenURI, uint256 createdAt);\n\n  //mapping\n\n  // tokenId => collectionName\n  mapping(uint256 => string) private _tokenCollection;\n\n  // tokenId => created time\n  mapping(uint256 => uint256) private _tokenCreatedAt;\n\n  // collectionName => collection owner address\n  mapping(string => string) private _collectionOwners;\n\n  // collectionName => token total supply\n  mapping(string => uint256) private _collectionMinted;\n\n  // collectionName => collection meta URL\n  mapping(string => string) private _collectionMeta;\n\n  //transactions\n\n  /**\n   * @dev transfer admin ownership(change server address)\n   * @param newOwner new server address\n   */\n  function transferOwnership(address newOwner) public override onlyOwner {\n    require(newOwner != address(0), \"Ownable: new owner is the zero address\");\n    _transferOwnership(newOwner);\n  }\n\n  /**\n   * @dev create new collection\n   * @param collectionName unique collection name(same with id)\n   * @param owner string collection owner\n   * @param metaURI string metaData URI, it is copied to tokenURI\n   */\n  function createCollection(\n    string memory collectionName,\n    string memory owner,\n    string memory metaURI\n  ) public onlyOwner whenNotPaused {\n    require(!_existsCol(collectionName), \"Poap: collection already created\");\n\n    _collectionOwners[collectionName] = owner;\n    _collectionMinted[collectionName] = 0;\n    _collectionMeta[collectionName] = metaURI;\n\n    emit CreateCollection(collectionName, metaURI);\n  }\n\n  /**\n   * @dev mint new token to users\n   * @param recipient address user address\n   * @param collectionName string collection name what the token is from\n   * @return uint256 new token id\n   */\n  function mintToken(\n    address recipient,\n    string memory collectionName\n  )\n    public\n    onlyOwner\n    whenNotPaused\n    existCollection(collectionName)\n    returns (uint256)\n  {\n    _tokenIds.increment();\n\n    uint256 newItemId = _tokenIds.current();\n\n    _tokenCollection[newItemId] = collectionName;\n    _collectionMinted[collectionName] += 1;\n    string memory tokenURI = _collectionMeta[collectionName];\n\n    _mint(recipient, newItemId);\n    _setTokenURI(newItemId, tokenURI);\n    _lock(newItemId);\n\n    _tokenCreatedAt[newItemId] = block.timestamp;\n\n    emit MintToken(newItemId, tokenURI, _tokenCreatedAt[newItemId]);\n\n    return newItemId;\n  }\n\n  /**\n   * @dev lock token for restricting transfer function(only by owner - if there is an unavoidable circumstance)\n   * @param tokenId uint256 tokenId for lock\n   */\n  function unlock(\n    uint256 tokenId\n  ) public onlyOwner existToken(tokenId) whenNotPaused {\n    _unlock(tokenId);\n  }\n\n  /**\n   * @dev unlock token for restricting transfer function\n   * @param tokenId uint256 tokenId for unlock\n   */\n  function lock(\n    uint256 tokenId\n  ) public onlyOwner existToken(tokenId) whenNotPaused {\n    _lock(tokenId);\n  }\n\n  //view\n\n  /**\n   * @dev get collection name from tokenId\n   * @param tokenId uint256\n   * @return string collection name corresponding to tokenId\n   */\n  function tokenCollection(\n    uint256 tokenId\n  ) public view existToken(tokenId) returns (string memory) {\n    return _tokenCollection[tokenId];\n  }\n\n  /**\n   * @dev get total token supply from collectionName\n   * @param collectionName string\n   * @return uint256 total token supply corresponding to collection name\n   */\n  function collectionMinted(\n    string memory collectionName\n  ) public view existCollection(collectionName) returns (uint256) {\n    return _collectionMinted[collectionName];\n  }\n\n  /**\n   * @dev get collection owner from collectionName\n   * @param collectionName string\n   * @return uint256 collection owner corresponding to collection name\n   */\n  function collectionOwner(\n    string memory collectionName\n  ) public view existCollection(collectionName) returns (string memory) {\n    return _collectionOwners[collectionName];\n  }\n\n  /**\n   * @dev get token created time from tokenId\n   * @param tokenId uint256\n   * @return uint256 token created time corresponding to tokenId\n   */\n  function tokenCreatedAt(\n    uint256 tokenId\n  ) public view existToken(tokenId) returns (uint256) {\n    return _tokenCreatedAt[tokenId];\n  }\n\n  /**\n   * @dev get token lock status\n   * @return bool true if token is locked, or false\n   */\n  function locked(uint256 tokenId) public view override returns (bool) {\n    return super.locked(tokenId);\n  }\n\n  //sbt\n\n  //override below functions for lock transfer function when the token status is locked\n\n  function safeTransferFrom(\n    address from,\n    address to,\n    uint256 tokenId\n  ) public override isUnLocked(tokenId) whenNotPaused {\n    super.safeTransferFrom(from, to, tokenId);\n  }\n\n  function safeTransferFrom(\n    address from,\n    address to,\n    uint256 tokenId,\n    bytes memory data\n  ) public override isUnLocked(tokenId) whenNotPaused {\n    super.safeTransferFrom(from, to, tokenId, data);\n  }\n\n  function transferFrom(\n    address from,\n    address to,\n    uint256 tokenId\n  ) public override isUnLocked(tokenId) whenNotPaused {\n    super.transferFrom(from, to, tokenId);\n  }\n\n  //internal\n\n  function _stringsEquals(string memory s1, string memory s2) private pure returns (bool) {\n    bytes memory b1 = bytes(s1);\n    bytes memory b2 = bytes(s2);\n    uint256 l1 = b1.length;\n    if (l1 != b2.length) return false;\n    for (uint256 i=0; i<l1; i++) {\n        if (b1[i] != b2[i]) return false;\n    }\n    return true;\n}\n\n  /**\n   * @dev confirm exist collection internal(like _exist)\n   */\n  function _existsCol(\n    string memory collectionName\n  ) internal view virtual returns (bool) {\n    return !_stringsEquals(_collectionOwners[collectionName] , \"\");\n  }\n\n  //modifier\n\n  /**\n   * @dev Modifier to confirm token exist\n   */\n  modifier existToken(uint256 tokenId) {\n    require(_exists(tokenId), \"Poap: nonexistent token\");\n    _;\n  }\n\n  /**\n   * @dev Modifier to confirm collection exist\n   */\n  modifier existCollection(string memory collectionName) {\n    require(_existsCol(collectionName), \"Poap: nonexistent collection\");\n    _;\n  }\n}\n",
  "sourcePath": "/home/kdm/hdd/project/BEB-07-final-DidYouEat/contracts/contracts/Poap.sol",
  "compiler": {
    "name": "solc",
    "version": "0.8.17+commit.8df45f5f.Emscripten.clang"
  },
  "schemaVersion": "3.4.11",
  "updatedAt": "2023-01-29T10:07:01.575Z",
  "networkType": "ethereum",
  "devdoc": {
    "kind": "dev",
    "methods": {
      "approve(address,uint256)": {
        "details": "See {IERC721-approve}."
      },
      "balanceOf(address)": {
        "details": "See {IERC721-balanceOf}."
      },
      "collectionMinted(string)": {
        "details": "get total token supply from collectionName",
        "params": {
          "collectionName": "string"
        },
        "returns": {
          "_0": "uint256 total token supply corresponding to collection name"
        }
      },
      "collectionOwner(string)": {
        "details": "get collection owner from collectionName",
        "params": {
          "collectionName": "string"
        },
        "returns": {
          "_0": "uint256 collection owner corresponding to collection name"
        }
      },
      "createCollection(string,string,string)": {
        "details": "create new collection",
        "params": {
          "collectionName": "unique collection name(same with id)",
          "metaURI": "string metaData URI, it is copied to tokenURI",
          "owner": "string collection owner"
        }
      },
      "getApproved(uint256)": {
        "details": "See {IERC721-getApproved}."
      },
      "isApprovedForAll(address,address)": {
        "details": "See {IERC721-isApprovedForAll}."
      },
      "lock(uint256)": {
        "details": "unlock token for restricting transfer function",
        "params": {
          "tokenId": "uint256 tokenId for unlock"
        }
      },
      "locked(uint256)": {
        "details": "get token lock status",
        "returns": {
          "_0": "bool true if token is locked, or false"
        }
      },
      "mintToken(address,string)": {
        "details": "mint new token to users",
        "params": {
          "collectionName": "string collection name what the token is from",
          "recipient": "address user address"
        },
        "returns": {
          "_0": "uint256 new token id"
        }
      },
      "name()": {
        "details": "See {IERC721Metadata-name}."
      },
      "owner()": {
        "details": "Returns the address of the current owner."
      },
      "ownerOf(uint256)": {
        "details": "See {IERC721-ownerOf}."
      },
      "pause()": {
        "details": "called by the owner to pause, triggers stopped state"
      },
      "paused()": {
        "returns": {
          "_0": "true if the contract is paused, false otherwise."
        }
      },
      "renounceOwnership()": {
        "details": "Leaves the contract without owner. It will not be possible to call `onlyOwner` functions anymore. Can only be called by the current owner. NOTE: Renouncing ownership will leave the contract without an owner, thereby removing any functionality that is only available to the owner."
      },
      "safeTransferFrom(address,address,uint256)": {
        "details": "See {IERC721-safeTransferFrom}."
      },
      "safeTransferFrom(address,address,uint256,bytes)": {
        "details": "See {IERC721-safeTransferFrom}."
      },
      "setApprovalForAll(address,bool)": {
        "details": "See {IERC721-setApprovalForAll}."
      },
      "supportsInterface(bytes4)": {
        "details": "See {IERC165-supportsInterface}."
      },
      "symbol()": {
        "details": "See {IERC721Metadata-symbol}."
      },
      "tokenCollection(uint256)": {
        "details": "get collection name from tokenId",
        "params": {
          "tokenId": "uint256"
        },
        "returns": {
          "_0": "string collection name corresponding to tokenId"
        }
      },
      "tokenCreatedAt(uint256)": {
        "details": "get token created time from tokenId",
        "params": {
          "tokenId": "uint256"
        },
        "returns": {
          "_0": "uint256 token created time corresponding to tokenId"
        }
      },
      "tokenURI(uint256)": {
        "details": "See {IERC721Metadata-tokenURI}."
      },
      "transferFrom(address,address,uint256)": {
        "details": "See {IERC721-transferFrom}."
      },
      "transferOwnership(address)": {
        "details": "transfer admin ownership(change server address)",
        "params": {
          "newOwner": "new server address"
        }
      },
      "unlock(uint256)": {
        "details": "lock token for restricting transfer function(only by owner - if there is an unavoidable circumstance)",
        "params": {
          "tokenId": "uint256 tokenId for lock"
        }
      },
      "unpause()": {
        "details": "called by the owner to unpause, returns to normal state"
      }
    },
    "version": 1
  },
  "userdoc": {
    "events": {
      "Locked(uint256)": {
        "notice": "Emitted when the locking status is changed to locked."
      },
      "Unlocked(uint256)": {
        "notice": "Emitted when the locking status is changed to unlocked."
      }
    },
    "kind": "user",
    "methods": {},
    "version": 1
  }
}